:020000040800F2
:100000000000022045E100083530000837300008C4
:10001000393000083B3000083D3000080000000087
:10002000000000000000000000000000219B00080C
:100030003F30000800000000C19B0008B396000894
:1000400095E1000895E1000895E1000895E10008B8
:1000500095E1000895E1000841300008593000089A
:100060007130000895E1000895E10008893000082A
:1000700095E1000895E1000899300008A9300008D2
:10008000B9300008C9300008D930000895E10008EF
:1000900095E1000895E1000895E1000895E1000868
:1000A00095E1000895E1000895E1000895E1000858
:1000B000E930000895E100080000000095E1000823
:1000C00095E1000895E1000895E1000895E1000838
:1000D000F9300008093100081931000895E10008DD
:1000E00095E1000895E10008000000000000000014
:1000F0000000000000000000000000000000000000
:100100000000000095E100080000000095E10008F3
:1001100095E100080000000095E1000800000000E3
:1001200095E1000895E1000895E1000895E10008D7
:1001300095E1000895E1000895E100080000000045
:1001400095E1000895E1000895E1000895E10008B7
:10015000293100083931000895E1000895E10008CF
:1001600095E1000895E1000895E100080000000015
:100170000000000095E10008000000000000000001
:1001800095E1000895E1000895E1000895E1000877
:0801900095E1000800000000E9
:1001A0000348044B834202D0034B03B11847704706
:1001B0002806002028060020000000000548064B05
:1001C0001B1AD90F01EBA301491002D0034B03B155
:1001D000184770472806002028060020000000006D
:1001E00010B5064C237843B9FFF7DAFF044B13B17F
:1001F0000448AFF300800123237010BD28060020BF
:100200000000000098E1000808B5044B1BB1044948
:100210000448AFF30080BDE80840CFE700000000CD
:100220002C06002098E1000870B50F4B0F4DAB4233
:10023000A3EB050607D0B610002455F8043B0134A3
:100240009847A642F9D80DF0A7FF094D094B5E1B50
:10025000AB424FEAA60606D0002455F8043B013411
:100260009847A642F9D870BDE0ED0008E0ED00081F
:10027000E0ED0008E4ED000838B510EE105A25F066
:100280000044B4F1A14FF0EE407A0DD3B4F1FF4F2A
:1002900058D8DFED517A9FED517A002DCCBFB0EEEA
:1002A000470AB0EE670A38BD4D4B9C4259D8B4F1AD
:1002B000445F4AD34FF0FF3227EEA76ADFED496A69
:1002C000DFED495ADFED494A9FED495A9FED494A12
:1002D00026EE067A531CE7EE265ADFED476AA5EEB6
:1002E000875AE7EE246ADFED455ADFED454AE6EE30
:1002F000875AA5EE074A9FED435ADFED436AA5EE04
:10030000875AE4EE074ADFED415AE4EE876AE5EEEC
:10031000075A66EE866A65EE875A37D03C4B03EB88
:10032000820376EEA56A93ED047A93ED006A96EE69
:10033000A77A002D77EE677A36EE670AB3DAB1EE68
:10034000400A38BD30EE000A38BD9FED327A30EEFB
:10035000077AF7EE006AB4EEE67AF1EE10FAA9DD5C
:1003600038BD00F095F82C4B9C4216D8A3F5D0036D
:100370009C4227D8F0EE007ABFEE007AA0EE277AF2
:10038000002230EE270AC7EE007A95E776EEA56ADE
:10039000E6EEE77AB0EE670A38BD204B9C420BD8F8
:1003A000F7EE087AB7EE007AA0EE277A022230EE56
:1003B000670AC0EE077A7FE7BFEE007AC7EE007AE1
:1003C000032279E7F7EE007A30EE677A30EE270AFB
:1003D0000122C7EE007A6FE7DB0FC9BFDB0FC93F11
:1003E000FFFFDF3ED769853C59DA4B3D21A215BDA1
:1003F000356B883D6E2EBA3D6BF16EBD95879DBD08
:100400002549123E388EE3BDABAAAA3ECDCC4CBEE8
:10041000C0E10008CAF24971FFFF973FFFFF1B4090
:1004200010EE103A184923F000428A421BD9B2F16B
:10043000FF4F02D330EE400A704700B583B06846E4
:1004400000F0A6FD00F003000128DDED010A9DED9E
:10045000000A0CD0022812D070B1012001F08CFAF1
:1004600003B05DF804FBDFED090A00F0C5BE01F042
:1004700083FAB1EE400AF3E700F0BEFEF0E700F0C9
:10048000BBFEB1EE400AEBE7D80F493F0000000089
:1004900010EE103A23F0004300EE103A704700BF10
:1004A00010EE103A194923F000428A421CD9B2F1E9
:1004B000FF4F02D330EE400A704700B583B0684664
:1004C00000F066FD00F003000128DDED010A9DED5E
:1004D000000A0ED0022813D070B100F08DFEB1EEEC
:1004E000400A03B05DF804FBDFED090A002001F0CB
:1004F00043BA00F081FEF4E7012001F03DFAF0E795
:10050000012001F039FAB1EE400AEAE7D80F493F7D
:100510000000000038B52DED028B55EC104B00F0BB
:10052000EFF8184BB0EE408AF0EE608A93F9003095
:1005300001330DD022462B462046294601F078FF94
:1005400030B9002200232046294601F049FF30B986
:10055000B0EE480AF0EE680ABDEC028B38BD0DF033
:1005600028EE00220023212101601046194601F0E7
:10057000EFFD41EC180BB0EE480AF0EE680ABDEC56
:10058000028B38BD0000002008B52DED028BB0EEC7
:10059000408A00F081F9144B93F900300133F0EEFA
:1005A000408A0FD0B4EE488AF1EE10FA0AD6B0EEC7
:1005B000480AFFF76DFFF7EE007AB4EEE70AF1EEB6
:1005C00010FA04DCB0EE680ABDEC028B08BD0DF039
:1005D000F0EDBDEC028B034621221A600348BDE812
:1005E000084001F05BBA00BF000000206CE9000881
:1005F00008B52DED028BB0EE408A00F073FA144B73
:1006000093F900300133F0EE408A0FD0B4EE488AFF
:10061000F1EE10FA0AD6B0EE480AFFF739FFF7EE0E
:10062000007AB4EEE70AF1EE10FA04DCB0EE680AE4
:10063000BDEC028B08BD0DF0BCEDBDEC028B03469A
:1006400021221A600348BDE8084001F027BA00BF24
:10065000000000206CE9000800F042BB08B52DED59
:10066000028BF0EE408AB0EE608A00F0DFFB0E4BAA
:1006700093F9003001330BD0F4EE488AF1EE10FA12
:1006800006D6DFED0A8AB4EE688AF1EE10FA02D0DF
:10069000BDEC028B08BD0DF08CED88EEA80ABDEC18
:1006A000028B2123036008BD000000200000000031
:1006B00008B52DED028BB0EE408A00F099FD0E4B8F
:1006C00093F9003001330BD0B4EE488AF1EE10FA02
:1006D00006D6DFED0A8AB4EEE88AF1EE10FA02D40B
:1006E000BDEC028B08BD0DF064ED88EEA80ABDECF0
:1006F000028B2123036008BD0000002000000000E1
:100700002DE9F843634855EC104BA84300F09C805A
:10071000002D21462B46224656DD2C1500F0AD80DB
:10072000C3F31303E107A4F2FF3643F4801303D4A9
:10073000D10F01EB430352005B00002503EBD273A2
:10074000761052001620AC464FF400110CEB010459
:10075000A34203DB1B1B01EB040C0D445B000138BF
:1007600003EBD2734FEA51014FEA4202EED1074642
:10077000804620244FF000400AE03CD0590001EBB5
:10078000D271013C0B464FEA42024FEA50003ED084
:100790009C4508EB000EF0DABEF1000F0EEB0008EE
:1007A0000CDBE146A3EB0C01964588BF01F1FF315C
:1007B0004900CC46A2EB0E020744E0E7B8F1000F77
:1007C000EFDB0CF10109EDE725F0004020432FD0CD
:1007D000002D47D1D10A153B52050029FAD0CE028F
:1007E0001C4610460B4649D520254FF0FF31E84006
:1007F000641A034394E7964502D94FEA4C01BEE7D9
:10080000BEF1000F0EEB000814DB0021D2E711430C
:1008100014D17C086910EB0701F17F5101F500113B
:1008200048BF44F0004401EB0653224643EC102B32
:10083000BDE8F883B8F1000FC3DAE6E77A1C16BF0B
:10084000781C01354408E5E722462B462046294618
:1008500001F054FB22462B4601F09AF941EC100BB3
:10086000BDE8F8832046294601F090F902460B4680
:1008700001F06EFC41EC100BDAE7084600225B0049
:10088000DD02114602F10102F9D5C2F1200500FA9C
:1008900002F2ACE70000F07F08B510EE102A22F05B
:1008A0000043B3F17E5F2DED028B12D00AD8B3F175
:1008B0007C5F19D2B3F10C5F6ED8BDEC028B9FED5B
:1008C000780A08BD70EE407A87EEA70ABDEC028B6D
:1008D00008BDBDEC028B9FED730ADFED737A002A31
:1008E000C8BFB0EE670A08BD002AC0F29280F7EEDA
:1008F000008A38EEC00AF6EE007A20EE278AB0EEC3
:10090000480A00F075FCDFED697A9FED697A9FED8A
:10091000696ADFED695ADFED696AA8EE277ADFEDD3
:10092000687AA7EE086AE8EE257ADFED665A9FED51
:10093000667AE6EE086AE7EE885ADFED647AA6EE9C
:10094000887AE5EE887A10EE103A23F47F63B0EEF1
:10095000476A23F00F039FED5E7AF0EE676A07EEB9
:10096000903AA6EE087AF0EE485AE7EEE75AE6EE3D
:10097000888A30EE276A27EE087AC5EE866A87EE07
:10098000286ABDEC028BB0EE667AA0EE067A37EEEE
:10099000870A30EE000A08BD20EE007ADFED437AC8
:1009A0009FED436ADFED436A9FED435ADFED435A03
:1009B000A7EE276ABDEC028BE6EE076ADFED407A10
:1009C0009FED406AE7EE057AE6EE875AA7EE876A62
:1009D0009FED3D5ADFED3D7ADFED3D6AA5EE875A8A
:1009E000E6EE077AE5EE076AF7EE005AE7EE875A79
:1009F00026EE877A9FED376ADFED377AC7EE256AF4
:100A0000B0EE467AA0EE667A30EE470A37EEC00ABC
:100A100008BDB7EE007A30EE070AF6EE007A60EE17
:100A2000277ADFED226A9FED226ADFED224ADFEDB1
:100A3000225A9FED225A9FED268AA7EEA66ADFED85
:100A4000206AE6EE274AE7EEA56ADFED1E5A9FED23
:100A50001E6AA4EEA75AE6EEA75ADFED1C6AA5EEC1
:100A6000276AE5EEA76AA6EE278AA6EEA77A28EE01
:100A7000278AF0EE478AB0EE670A00F0B9FB88EEED
:100A8000286A9FED167ADFED167AA0EE067AF0EE70
:100A9000006A37EE007AE7EE667AB0EE670A15E78D
:100AA000DB0FC93FDB0F49400000000008EF1138A1
:100AB000047F4F3A461124BD2EC69D3DA80A4E3EE6
:100AC000613330BF2D57014090B0A6BE39D119C057
:100AD000ABAA2A3E6821A233DA0FC93F6821A2B32C
:100AE000DA0F494038B510EE105A25F00044B4F141
:100AF0007E5F2DED048BF0EE407A00F0828079D895
:100B0000B4F17C5F0ED2B4F1485F80F094809FED29
:100B1000647A30EE077AF7EE006AB4EEE67AF1EE28
:100B200010FA64DCB0EE670AFFF7B2FCF7EE007A69
:100B300037EEC08AB6EE007A28EE078ADFED596AF2
:100B40009FED597A9FED596A9FED595ADFED595A39
:100B5000DFED598AE8EE076A9FED587AA8EE067A2B
:100B60009FED576AA6EE885AA7EE086A9FED557A60
:100B7000DFED556AE5EE085AA6EE087AE5EE886ADA
:100B8000E7EE087AE6EE888AB0EE480AB0EE679A99
:100B900000F02EFB4D4B9C4268EE888A3CD810EE4C
:100BA000103A23F47F6323F00F0306EE903AA6EE8B
:100BB000E68A70EE267A88EE895AC8EE274A9FEDBB
:100BC000447ADFED447AB0EE006AA4EEC67A30EEE5
:100BD000000AF0EE675A90EE057AE6EEC65A37EE56
:100BE000657A37EEC70A002D01DCB1EE400ABDEC94
:100BF000048B38BDBDEC048B70EE407A87EEA70AFB
:100C000038BDBDEC048B9FED320A9FED337A27EEA1
:100C1000800AA7EE870A38BD88EE896A9FED2F7A91
:100C2000DFED2D7AA0EE060AF0EE006AA0EE267A3D
:100C300037EEC70AD7E720EE007ADFED1B6A9FED9B
:100C4000196ADFED1B5A9FED195ADFED1A4AA7EE1C
:100C5000266ABDEC048BE6EE075ADFED186A9FEDBD
:100C6000186AE7EE056AE5EE874AA6EE876A9FED09
:100C7000165ADFED145ADFED106AA4EE875AE6EE3D
:100C8000075AE5EE076AB7EE006AA5EE876A26EE18
:100C9000877AC7EE066AE0EE267AB0EE670A38BDBC
:100CA000CAF24971047F4F3A08EF11382EC69D3DB4
:100CB000461124BDA80A4E3EABAA2A3E613330BF7E
:100CC0002D57014039D119C090B0A6BE9999793FEE
:100CD0002EBD3BB3DB0F493FDB0FC93F2EBD3B337E
:100CE00010B582B0CDED010A019B23F00042B2F1B4
:100CF000FF4FF0EE407A30D810EE100A20F000419D
:100D0000B1F1FF4F29D8B3F17E5F42D09C1704F0B8
:100D1000020444EAD07431B37AB3B2F1FF4F40D049
:100D2000B1F1FF4F29D0891AB1F1F45F4FEAE152D6
:100D300034DA002B42DA3C3240DA9FED340A012CDF
:100D40004ED0022C43D064B19FED317ADFED317A81
:100D500030EE070A30EE670A03E09DED017A37EEC8
:100D6000270A02B010BD022C10D09FED2B7A032C65
:100D700008BFB0EE470A02B010BD9FED280ADFEDB4
:100D8000287A0028B8BFB0EE670AEAE79FED210A8B
:100D9000E7E702B0BDE81040FFF76EBA9FED1F0A0B
:100DA000CDE7B1F1FF4F04F1FF3420D0022C26D85B
:100DB0001C4B03EB840393ED030AD2E79DED017A0C
:100DC00087EE870AFFF764FBFFF756FAB7E79FED58
:100DD000107ADFED107A30EE070A37EEC00AC0E76E
:100DE00010EE103A03F1004300EE103AB9E7022C7E
:100DF00008D80C4B03EB840393ED000AB1E79FED99
:100E0000030AAEE79FED080AABE700BF0000000051
:100E10002EBDBB33DB0F4940DB0F49C0DB0FC93FA1
:100E2000DB0FC9BFE0E10008DB0F493F30B583B0FD
:100E3000CDED010A019820F000456B1EB3F1FF4F84
:100E400041D210EE101A21F00044B4F1FF4F3AD213
:100E5000AC423EDB01F0004E3DD011F0FF4F5AD1C5
:100E60002302002BC8BF6FF07D027ADD5B00002BF0
:100E700002F1FF32FADC10F0FF4F5DD12B024DD4AE
:100E80006FF07D0C5B000CF1FF3CFBD512F17E0F87
:100E900057DBC1F3160141F400031CF17E0F46DA63
:100EA0006FF07D00A0EB0C0005FA00F0B2EB0C0235
:100EB00004D117E00FD04B00013A13D0191A0029C2
:100EC000F8DA5B00F8E7DDED017A60EE277A87EE6D
:100ED000A70A03B030BD2D4B03EB5E7393ED000A00
:100EE00003B030BD181A58BF03461BB9F3E75B00C7
:100EF0000CF1FF3CB3F5000FF9DB1CF17E0F26DB94
:100F0000A3F500030CF17F0C43EA0E0343EACC5334
:100F100000EE103ADDE7E2157F3AACE712F17E0F02
:100F20002DDA6FF07D0CACEB020304FA03F3C0F38F
:100F3000160040F40000B9E74FEAE55CACF17F0C25
:100F4000A4E76FF07D039B1A04FA03F3A5E76FF0A3
:100F50007D02A2EB0C02134143EA0E0300EE103AAD
:100F6000B7E710F0FF4F06D04FEAE55CACF17F0C1D
:100F70006FF07D028DE72B026FF07D0280D5C1F30B
:100F8000160141F400036FF07D0CD0E7F8E1000892
:100F900070B510EE103A884A23F00044944286B0AF
:100FA000054671D9854A94421E4624D823F000464E
:100FB000002BDFED837A834A26F00F06B0EE407AED
:100FC00040F3E080964270EE677A09BF9FED7E7A2B
:100FD000DFED7E6ADFED7E6A77EEC77A37EEE67A7E
:100FE00077EEC77A80ED007A77EEE67AC0ED017A87
:100FF000012006B070BD774A944252D9B4F1FF4F38
:1010000048D2E215863AA4EBC25307EE903ABDEE01
:10101000E77ADFED716AB8EEC77A77EEC77A8DEDC1
:10102000037A67EEA67ABDEEE77AB8EEC77A77EE76
:10103000C77A8DED047A67EEA67AF5EE407AF1EE86
:1010400010FACDED057A40F09880B5EE407AF1EED9
:1010500010FA0CBF01230223604901910221009183
:1010600003A8294600F04AF9002EC2DA95ED007A6D
:10107000D5ED017AB1EE477AF1EE677A85ED007A27
:10108000C5ED017A4042B4E7002285ED000A4260D6
:101090000020AEE770EE407AC0ED017AC0ED007A34
:1010A000F6E7FFF7F5F99FED4E7A9FED456AF6EE0C
:1010B000007AE0EE077A9FED457AFDEEE77A17EECB
:1010C000900AF8EEE76A1F28A6EEC60A66EE877A4F
:1010D000B1EE666A20DC434A411E26F0004352F816
:1010E000212023F0FF03934216D030EE677A30EED2
:1010F000470A002E30EE670A85ED007A85ED010A79
:10110000BFF677AFB1EE477AB1EE400A85ED007ACF
:1011100085ED010A40426CE730EE677AE21517EE82
:10112000103AC3F3C753C3EBD453082BDFDD9FED55
:10113000267A9FED275AF0EE405AE6EE075A70EEF7
:10114000657AE6EE077AD6EE857A35EEE77A17EE1F
:10115000103AC3F3C753D21A192A10DD9FED227A31
:101160009FED225AB0EE650AA6EE070A75EEC07A28
:10117000E6EE077AD6EE857AB7E703236CE7B0EEA2
:10118000650AB4E7964270EE277A09BF9FED0E7AA2
:10119000DFED0E6ADFED0E6A77EE877A37EEA67A1C
:1011A00077EEC77A80ED007A77EEA67AC0ED017A05
:1011B0004FF0FF301DE700BFD80F493FE3CB16408B
:1011C000800FC93FD00FC93F0044353743443537FE
:1011D00008A3852E800F49430000804380E2000869
:1011E00084F9223F00E2000800A3852E32318D24CD
:1011F000B1EEC00A704700BF10EE103A23F0004372
:10120000B3F1485F2CD2FDEEC07A17EE903A002B76
:1012100060D060EE007A9FED317A9FED315ADFEDBC
:10122000315A9FED316ADFED316AA7EE875A9FEDA3
:10123000307AE5EE275AA7EEA56AA7EE867AE7EEA2
:10124000876A67EEA66A60EEC00AB6EE007AE7EE3D
:10125000A60AB7EE000AD7EE870A30EE600A70479A
:1012600060EE007A9FED1D7A9FED1D5ADFED1D5A4D
:101270009FED1D6ADFED1D6A1E4AA7EE875A934255
:101280009FED1B7AE5EE275AA5EEA76AA6EE277A10
:10129000E7EE276A66EEA76AD5D9174A934214D8B3
:1012A00003F17F4307EE103AB7EE006A36EE476A65
:1012B00060EEC00AF6EE005A97EEA57AE7EEA60AAF
:1012C00037EE607A36EE470A7047B6EE076AB5EE3B
:1012D000027AEDE7B7EE000A704700BF4ED747AD80
:1012E000F6740F317CF293B4010DD037ABAA2A3DCE
:1012F000610BB6BA9999993E0000483F2DE9F04F2D
:101300002DED048BDBB00C46814611466898964A59
:1013100004931E4623460C1D52F8205006F1FF3759
:10132000C0F2B082CA1E48BF0A1DD2100392013219
:10133000D2000692069A0398EE19A1EB0202A0EBE6
:10134000070019D401369FED897ADDF8A4C106445F
:101350001EAC9E460028A4BF5CF8203007EE903AF1
:1013600000F10100ACBFF8EEE77AF0EE477AB04248
:10137000E4EC017AEED17346002DC0F2D9820498D4
:101380001EAC04EB80064FEA800805EB000E0DF55D
:101390008C7C3C4609EB8000002FDFED747A09DB82
:1013A000B346CA46FAEC016A3BED017A8245E6EEA5
:1013B000877AF7D101347445ECEC017A06F1040622
:1013C000EAD10DF1280A0AEB8500CDE9073104388E
:1013D0009FED689ADFED668A059009EB0804AB463D
:1013E0000AEB850846AE019510465AAB03EB8B031A
:1013F000BBF1000F13ED140A16DD06EB8B0352460A
:1014000060EE097AB0EE407AFDEEE77A73ED016A9C
:10141000F8EEE77AB342A7EEE87A37EEA60ABDEE19
:10142000C77AA2EC017AEBD1029000F03DFBF4EE1A
:10143000007AB0EE408A20EE270A00F0E5FAF2EEDC
:10144000007AA0EE678A02980028FDEEC89AF8EEAE
:10145000E97A38EE678A6EDD0BF1FF3CC0F10803D4
:101460005AF82C2042FA03F505FA03F3D21AC0F118
:10147000070119EE903A42FA01F12B4400294AF88B
:101480002C2009EE903A00F34B81B5EE408AF1EE44
:1014900010FA40F0BA80019B9B450BDD0AEB8B03F1
:1014A000002253F8045D434542EA0502F9D1002ABF
:1014B00040F05481019B013B5AF82330002B40F04F
:1014C0004481059B012153F8042D0131002AFAD0F3
:1014D0000BF1010359449C46039D049A05EB030E4E
:1014E0000EF1804E699D5A440EF1FF3E06EB830BD0
:1014F0001EAB05EB8E0E03EB8205DEED017AF8EEF6
:10150000E77A002F0EF1040EE5EC017ADFED177A91
:1015100009DB2A464B46F3EC016A32ED017AA3421D
:10152000E6EE877AF7D10CF1010C6145EBEC017A1C
:10153000E3DA8B4659E740F0E9800BF1FF335AF8C4
:10154000231009120029A0DD19EE903ABBF1000F1B
:1015500003F1010309EE903A40F3EE810025D446F1
:101560002A460291864619E098E50008000000002E
:10157000000080430000803B0135AB4541F8040C7E
:1015800040F3E8800B680CF1080C0135C3F1FF0350
:10159000AB454FF001024CF8043C0DDD614651F8BB
:1015A000043B002A40F0B080C3F58070002BE3D1EB
:1015B0000135AB458C46F1DC0299704600280CDD04
:1015C000012800F0B980022807D10BF1FF355AF845
:1015D000253003F03F034AF8253002297FF455AF48
:1015E000B7EE000A30EE488A002A3FF44EAF099168
:1015F000029000F059FA38EE408A02980999B5EE47
:10160000408AF1EE10FA3FF446AF079B019D01932B
:101610008846069B08990290B0EE480A581A00F0D6
:1016200043FA5FED2D6AB4EEE60AF1EE10FADDE959
:101630000132F0EE407AC0F24D811FED327A20EE99
:10164000077A0BF10104BDEEC77A0832B8EEC77A0B
:10165000E7EE667ABDEEC77AFDEEE77A17EE901AEE
:101660004AF82B1017EE101A4AF824101046B7EE5D
:10167000000A019300F018FA002C019BB0EE407AAA
:10168000C0F24C81601C46AE5FED466A81000AEBF9
:10169000800206EB800072ED017AF8EEE77A52459F
:1016A00067EE877A27EE267A60ED017AF3D10A1F7A
:1016B00046A8002D00EB02074FF000069C4620DBF9
:1016C000AB4BDFEDAC7A3846002201E0B24208DCD9
:1016D000F3EC016AB0EC017A01329542E6EE877ACA
:1016E000F4DA5AAB03EB8602A64242ED287A4FEABF
:1016F000860006F10102A7F1040747D0002D164627
:10170000DEDADFED9C7AECE78C463EE7F6EE007A17
:10171000B4EEE78AF1EE10FA80F2A2800021B4E67E
:101720000133BBF1000F09EE903AD8BF00223FF71A
:1017300015AF01287FF447AF0BF1FF355AF825307C
:1017400003F07F034AF8253047E70BF101039C467D
:101750001946C1E60299704601222FE70BF1FF34CA
:1017600088465AF82410019D079BA0F10802002921
:101770007FF47CAF0BF1804101390AEB810151F814
:10178000040D013C083A0028F9D06FE7689A022A54
:1017900063461BDC002A7ADC0FD132AADFED757AB2
:1017A000114431ED017A914277EE877AF9D14246C0
:1017B0000AB1F1EE677AC3ED007A19EE903A03F0C0
:1017C00007005BB0BDEC048BBDE8F08F689A032A7C
:1017D000F3D1002C00F0BC8032A90D1895ED007AF1
:1017E00001EB8400A700064656ED017AF0EE476A49
:1017F00037EE277A324677EEC77A043E77EEA67A3E
:10180000B142C2ED007A02ED017AEDD1012C00F077
:101810009F8095ED007A70ED017AF0EE476A37EE21
:10182000277A824277EEC77A80ED007A77EEA67A41
:10183000C0ED017AEFD1381DDFED4E7A014404325C
:1018400031ED017A8A4277EE877AF9D14246002A51
:1018500048D13299339A19605A60C3ED027AACE7E5
:1018600019EE903ABBF1000F03F1010309EE903A33
:10187000C8BF02213FF772AEF7EE007A37EEC88A92
:10188000022102E6082206920022039252E532AAC1
:10189000DFED387A114431ED017A8A4277EE877AAA
:1018A000F9D142467ABB9DED327AC3ED007A77EEEC
:1018B000677A64B133A90122B1EC017A0132944212
:1018C00077EE877AF8DA42460AB1F1EE677AC3ED2D
:1018D000017A72E7FDEEC07A5C4617EE901A4AF87C
:1018E0002B10C3E6DDED326A9DED337AF1EE666AC8
:1018F000B1EE477AF1EE677AC3ED006A83ED017AC3
:10190000C3ED027A59E7DDED326AB1EE677A83ED15
:10191000007A76EEE77A002CCCD1D6E7689A022AD4
:1019200012DC002A17DC7FF448AFDFED127A3EE7C5
:1019300004984FEA800844E502297FF4A6ADF7EE4B
:10194000007A37EEC88AA0E5689A032A7FF435AF9B
:10195000DFED087A7AE7424622B90022DDED327ADD
:101960001A60B4E74FF00042DDED327A1A60ACE75E
:10197000A4E500080000000010EE103A23F0004338
:10198000B3F1485F04D2FDEEC07A17EE903A5BB334
:1019900060EE007A9FED157ADFED155A9FED156A1E
:1019A000DFED156AE7EE875A9FED147AA5EEA76A78
:1019B00020EE275AE6EE276AA6EEA77A30B9DFEDC9
:1019C000106AE7EE876AA6EE850A704727EE457A29
:1019D000F6EE006AA0EEA67ADFED0A6AD7EE270AD5
:1019E000E5EE260A30EE600A704700BFD3C92E2FFD
:1019F000342FD7B21BEF3836010D50B98988083C17
:101A0000ABAA2ABEABAA2A3E10EE102AC2F3C753D5
:101A10007F3B162B22F0004129DC002B104618DBFF
:101A20001A4919410A4221D0DFED197A70EE277A5E
:101A3000F5EEC07AF1EE10FA18DD002A04DA4FF460
:101A4000000242FA03F3184420EA010300EE103AC0
:101A50007047DFED0F7A70EE277AF5EEC07AF1EE7F
:101A600010FA03DD002A08DB9FED0A0A7047B1F186
:101A7000FF4FFBD330EE000A7047DFED077A0029F5
:101A8000BFEE000A08BFB0EE670A7047FFFF7F0095
:101A9000CAF2497100000000000000809FED010AB9
:101AA000704700BF0000C07F82B08DED010A019B2E
:101AB00033F000422AD0B2F1FF4F23D213F0FF4F90
:101AC00028D19DED017ADFED287A284B67EE277A41
:101AD0009842CDED017A3ADB019BC3F3C752193A24
:101AE0001044FE281ADDDFED227ADFED226A019B29
:101AF000002BB0EE677AB8BFF0EE667A27EE870A61
:101B000002B0704730EE000A02B070479DED010A46
:101B100002B07047D20D1044FE28E4DC00280EDC31
:101B200010F1160F1ADB193023F0FF4343EAC053BC
:101B30009FED110A07EE903A27EE800AE4E723F0C2
:101B4000FF4343EAC05300EE103A02B07047DFEDA6
:101B50000B7A9DED017A27EE270AD5E7DFED077AAC
:101B6000DFED076AC3E700BF0000004CB03CFFFF99
:101B7000CAF24971CAF249F1000000336042A20D75
:101B80006042A28D81F0004102E000BF83F000437B
:101B900030B54FEA41044FEA430594EA050F08BF08
:101BA00090EA020F1FBF54EA000C55EA020C7FEACC
:101BB000645C7FEA655C00F0E2804FEA5454D4EB49
:101BC0005555B8BF6D420CDD2C4480EA020281EA13
:101BD000030382EA000083EA010180EA020281EA4B
:101BE0000303362D88BF30BD11F0004F4FEA01319D
:101BF0004FF4801C4CEA113102D0404261EB4101AC
:101C000013F0004F4FEA03334CEA133302D0524231
:101C100063EB430394EA050F00F0A780A4F10104ED
:101C2000D5F1200E0DDB02FA0EFC22FA05F2801827
:101C300041F1000103FA0EF2801843FA05F359410D
:101C40000EE0A5F120050EF1200E012A03FA0EFC8C
:101C500028BF4CF0020C43FA05F3C01851EBE371B6
:101C600001F0004507D54FF0000EDCF1000C7EEBD3
:101C700000006EEB0101B1F5801F1BD3B1F5001F11
:101C80000CD349085FEA30004FEA3C0C04F1010430
:101C90004FEA445212F5800F80F09A80BCF1004F59
:101CA00008BF5FEA500C50F1000041EB045141EADB
:101CB000050130BD5FEA4C0C404141EB0101013CA4
:101CC00028BFB1F5801FE9D291F0000F04BF014693
:101CD0000020B1FA81F308BF2033A3F10B03B3F165
:101CE00020020CDA0C3208DD02F1140CC2F10C02F5
:101CF00001FA0CF021FA02F10CE002F11402D8BF53
:101D0000C2F1200C01FA02F120FA0CFCDCBF41EA1E
:101D10000C019040E41AA2BF01EB0451294330BDED
:101D20006FEA04041F3C1CDA0C340EDC04F11404CA
:101D3000C4F1200220FA04F001FA02F340EA0300A1
:101D400021FA04F345EA030130BDC4F10C04C4F1E7
:101D5000200220FA02F001FA04F340EA03002946C7
:101D600030BD21FA04F0294630BD94F0000F83F411
:101D7000801306BF81F480110134013D4EE77FEAF4
:101D8000645C18BF7FEA655C29D094EA050F08BF40
:101D900090EA020F05D054EA000C04BF1946104621
:101DA00030BD91EA030F1EBF0021002030BD5FEA65
:101DB000545C05D14000494128BF41F0004130BD8D
:101DC00014F580043CBF01F5801130BD01F00045E1
:101DD00045F0FE4141F470014FF0000030BD7FEA54
:101DE000645C1ABF194610467FEA655C1CBF0B464F
:101DF000024650EA013406BF52EA033591EA030F66
:101E000041F4002130BD00BF90F0000F04BF00215D
:101E1000704730B54FF4806404F132044FF0000590
:101E20004FF0000150E700BF90F0000F04BF002109
:101E3000704730B54FF4806404F1320410F000456F
:101E400048BF40424FF000013EE700BF42004FEA6A
:101E5000E2014FEA31014FEA02701FBF12F07F43E7
:101E600093F07F4F81F06051704732F07F4208BF9E
:101E7000704793F07F4F04BF41F40021704730B5A5
:101E80004FF4607401F0004521F000411CE700BFF1
:101E900050EA010208BF704730B54FF000050AE074
:101EA00050EA010208BF704730B511F0004502D575
:101EB000404261EB41014FF4806404F132045FEA77
:101EC000915C3FF4D8AE4FF003025FEADC0C18BF20
:101ED00003325FEADC0C18BF033202EBDC02C2F112
:101EE000200300FA03FC20FA02F001FA03FE40EAA4
:101EF0000E0021FA02F11444BDE600BF70B54FF0A8
:101F0000FF0C4CF4E06C1CEA11541DBF1CEA135585
:101F100094EA0C0F95EA0C0F00F0DEF82C4481EAED
:101F2000030621EA4C5123EA4C5350EA013518BF0D
:101F300052EA033541F4801143F4801338D0A0FBFA
:101F400002CE4FF00005E1FB02E506F00042E0FBA7
:101F500003E54FF00006E1FB03569CF0000F18BFAD
:101F60004EF0010EA4F1FF04B6F5007F64F5407455
:101F700004D25FEA4E0E6D4146EB060642EAC621E8
:101F800041EA55514FEAC52040EA5E504FEACE2E55
:101F9000B4F1FD0C88BFBCF5E06F1ED8BEF1004F58
:101FA00008BF5FEA500E50F1000041EB045170BDD4
:101FB00006F0004646EA010140EA020081EA030118
:101FC000B4EB5C04C2BFD4EB0C0541EA045170BD14
:101FD00041F480114FF0000E013C00F3AB8014F18E
:101FE000360FDEBF002001F0004170BDC4F10004D7
:101FF000203C35DA0C341BDC04F11404C4F1200558
:1020000000FA05F320FA04F001FA05F240EA0200B2
:1020100001F0004221F0004110EBD37021FA04F6E8
:1020200042EB06015EEA430E08BF20EAD37070BDA2
:10203000C4F10C04C4F1200500FA04F320FA05F001
:1020400001FA04F240EA020001F0004110EBD37003
:1020500041F100015EEA430E08BF20EAD37070BD73
:10206000C4F1200500FA05F24EEA020E20FA04F34C
:1020700001FA05F243EA020321FA04F001F00041FB
:1020800021FA04F220EA020000EBD3705EEA430E6C
:1020900008BF20EAD37070BD94F0000F0FD101F09B
:1020A0000046400041EB010111F4801F08BF013CD4
:1020B000F7D041EA060195F0000F18BF704703F012
:1020C0000046520043EB030313F4801F08BF013D99
:1020D000F7D043EA0603704794EA0C0F0CEA135555
:1020E00018BF95EA0C0F0CD050EA410618BF52EA0F
:1020F0004306D1D181EA030101F000414FF0000015
:1021000070BD50EA410606BF1046194652EA430622
:1021100019D094EA0C0F02D150EA013613D195EA96
:102120000C0F05D152EA03361CBF104619460AD1DE
:1021300081EA030101F0004141F0FE4141F47001E8
:102140004FF0000070BD41F0FE4141F4780170BDD8
:1021500070B54FF0FF0C4CF4E06C1CEA11541DBF3D
:102160001CEA135594EA0C0F95EA0C0F00F0A7F83F
:10217000A4EB050481EA030E52EA03354FEA01316C
:1021800000F088804FEA03334FF0805545EA13137F
:1021900043EA12634FEA022245EA111545EA106547
:1021A0004FEA00260EF000419D4208BF964244F1DE
:1021B000FD0404F5407402D25B084FEA3202B61AFD
:1021C00065EB03055B084FEA32024FF480104FF4D1
:1021D000002CB6EB020E75EB030E22BFB61A754645
:1021E00040EA0C005B084FEA3202B6EB020E75EBD8
:1021F000030E22BFB61A754640EA5C005B084FEA40
:102200003202B6EB020E75EB030E22BFB61A75460C
:1022100040EA9C005B084FEA3202B6EB020E75EB17
:10222000030E22BFB61A754640EADC0055EA060ED8
:1022300018D04FEA051545EA16754FEA06164FEA1B
:10224000C30343EA52734FEAC2025FEA1C1CC0D1C7
:1022500011F4801F0BD141EA00014FF000004FF054
:10226000004CB6E711F4801F04BF01430020B4F115
:10227000FD0C88BFBCF5E06F3FF6AFAEB5EB030CCD
:1022800004BFB6EB020C5FEA500C50F1000041EBCA
:10229000045170BD0EF0004E4EEA113114EB5C0497
:1022A000C2BFD4EB0C0541EA045170BD41F480116A
:1022B0004FF0000E013C90E645EA060E8DE60CEA72
:1022C000135594EA0C0F08BF95EA0C0F3FF43BAF8F
:1022D00094EA0C0F0AD150EA01347FF434AF95EA46
:1022E0000C0F7FF425AF104619462CE795EA0C0F2A
:1022F00006D152EA03353FF4FDAE1046194622E7F7
:1023000050EA410618BF52EA43067FF4C5AE50EAD0
:1023100041047FF40DAF52EA43057FF4EBAE12E7C0
:102320004FF0FF3C06E000BF4FF0010C02E000BFA1
:102330004FF0010C4DF804CD4FEA410C7FEA6C5C84
:102340004FEA430C18BF7FEA6C5C1BD001B050EA27
:10235000410C0CBF52EA430C91EA030F02BF90EA12
:10236000020F0020704710F1000F91EA030F58BFD1
:10237000994208BF90422CBFD8176FEAE37040F033
:10238000010070474FEA410C7FEA6C5C02D150EAD1
:10239000013C07D14FEA430C7FEA6C5CD6D152EA8C
:1023A000033CD3D05DF8040B704700BF8446104651
:1023B00062468C461946634600E000BF01B5FFF750
:1023C000B7FF002848BF10F1000F01BD4DF808ED20
:1023D000FFF7F4FF0CBF012000205DF808FB00BFF1
:1023E0004DF808EDFFF7EAFF34BF012000205DF84B
:1023F00008FB00BF4DF808EDFFF7E0FF94BF012098
:1024000000205DF808FB00BF4DF808EDFFF7CEFF98
:1024100094BF012000205DF808FB00BF4DF808EDD7
:10242000FFF7C4FF34BF012000205DF808FB00BFA8
:102430004FEA410C7FEA6C5C02D150EA013C0AD1C0
:102440004FEA430C7FEA6C5C02D152EA033C02D1B2
:102450004FF0000070474FF0010070474FEA410213
:1024600012F5001215D211D56FF47873B3EB6252E6
:1024700012D94FEAC12343F0004343EA505311F00D
:10248000004F23FA02F018BF404270474FF000009F
:10249000704750EA013005D111F0004008BF6FF0DD
:1024A000004070474FF00000704700BF4A0011D253
:1024B00012F5001211D20DD56FF47873B3EB62529E
:1024C0000ED44FEAC12343F0004343EA505323FAAA
:1024D00002F070474FF00000704750EA013002D11F
:1024E0004FF0FF3070474FF0000070474FEA410255
:1024F000B2F1E04324BFB3F5001CDCF1FE5C0DD962
:1025000001F0004C4FEAC0024CEA5070B2F1004FAB
:1025100040EB830008BF20F00100704711F0804FAE
:1025200021D113F13872BCBF01F00040704741F473
:1025300080114FEA5252C2F11802C2F1200C10FA77
:102540000CF320FA02F018BF40F001004FEAC1235B
:102550004FEAD32303FA0CFC40EA0C0023FA02F3FF
:102560004FEA4303CCE77FEA625307D150EA0133D5
:102570001EBF4FF0FE4040F44000704701F00040A5
:1025800040F0FE4040F40000704700BF53B94AB924
:10259000002908BF00281CBF4FF0FF314FF0FF306B
:1025A00000F06AB9ADF1080C6DE904CE00F006F850
:1025B000DDF804E0DDE9022304B070472DE9F047BF
:1025C000089D0C46002B4ED194468C458646B2FAA7
:1025D00082F262D94AB1C2F12003914020FA03F39A
:1025E0000CFA02FC194300FA02FE4FEA1C471FFADC
:1025F0008CF6B1FBF7F44FEA1E4307FB141143EAD4
:10260000014304FB06F199420AD91CEB030304F1D0
:10261000FF3080F01381994240F21081023C634404
:10262000591A1FFA8EF3B1FBF7F007FB101143EABA
:10263000014300FB06F69E420AD91CEB030300F19E
:10264000FF3180F0FD809E4240F2FA806344023800
:102650009B1B40EA044000211DB1D3400022C5E984
:102660000032BDE8F0878B4205D90DB1C5E9000104
:1026700000210846F5E7B3FA83F1002946D1A342C9
:1026800002D39042C0F0F180861A64EB030301206C
:10269000002DE6D0C5E90063E3E7002A40F0918011
:1026A000A1EB0C044FEA1C481FFA8CF70121B4FB84
:1026B000F8F64FEA1E4308FB164443EA044307FBBF
:1026C00006F0984208D91CEB030306F1FF3402D24E
:1026D000984200F2CE8026461C1A1FFA8EF3B4FBF5
:1026E000F8F008FB104443EA044300FB07F79F425D
:1026F00008D91CEB030300F1FF3402D29F4200F221
:10270000B1802046DB1B40EA0640A5E7C1F1200668
:102710008B4022FA06F71F4320FA06FC04FA01F365
:1027200043EA0C03F44000FA01F8380C4FEA13496D
:10273000B4FBF0FE1FFA87FC00FB1E4449EA044488
:102740000EFB0CF9A14502FA01F20AD93C190EF16F
:10275000FF3A80F08580A14540F28280AEF1020E02
:102760003C44A4EB09041FFA83F9B4FBF0F300FB2B
:10277000134449EA044403FB0CFCA44507D93C1963
:1027800003F1FF3068D2A44566D9023B3C4443EADA
:102790000E40A0FB0293A4EB0C049C42CE469C4648
:1027A00052D34FD055B1B8EB0E0364EB0C0404FACE
:1027B00006F6CB40CC401E43C5E900640021BDE8CD
:1027C000F087C2F1200320FA03F10CFA02FC24FA8C
:1027D00003F394400C434FEA1C4800FA02FE1FFA30
:1027E0008CF7B3FBF8F008FB1031230C43EA0143EC
:1027F00000FB07F1994208D91CEB030300F1FF36F7
:102800002CD299422AD9023863445B1AA4B2B3FB92
:10281000F8F108FB113344EA034401FB07F3A34238
:1028200008D91CEB040401F1FF3613D2A34211D9DD
:1028300002396444E41A41EA004138E70446EFE60D
:10284000084605E7C845ADD2B9EB020E63EB070CAD
:102850000138A7E73146EDE7034698E73046D4E76D
:10286000D6467EE7634402384CE7064623460846D0
:102870000EE7023E63442FE7704700BF00B500F04B
:102880000700C0F1070CBCF1040F28BF4FF0040C87
:10289000031D062B0FD9C31E4FF0FF3E0EFA0CF09E
:1028A00021EA000199400EFA03FE22EA0E0241EAF3
:1028B00002005DF804FB0023EEE710B4046891FA0F
:1028C000A1F3A3B1B3FA83F35B004FF0030C0CFA4E
:1028D00003F324EA030391FAA1F151B1B1FA81F1B2
:1028E00049008A40134303605DF8044B704720237E
:1028F000EAE72021F4E710B4C46891FAA1F3A3B188
:10290000B3FA83F35B004FF0030C0CFA03F324EAF1
:10291000030391FAA1F151B1B1FA81F149008A4062
:102920001343C3605DF8044B70472023EAE720217E
:10293000F4E700002DE9F0478EB000230B930C93D1
:102940000D93059306930793089309930A9303F154
:10295000804303F50433DA6C42F00402DA64DA6C83
:1029600002F004020492049ADA6C42F08002DA6403
:10297000DA6C02F080020392039ADA6C42F00102F0
:10298000DA64DA6C02F001020292029ADA6C42F026
:102990000202DA64DA6C02F002020192019ADA6C45
:1029A00042F00802DA64DB6C03F008030093009B3A
:1029B000F0234FF09042936202F500624FF40071F1
:1029C0009162A2F580624FF4C05191619A4A5269B6
:1029D00022F0F00293FAA3F3002B00F02481B3FA63
:1029E00083F3022101FA03F31343934A536192687C
:1029F00022F00F020F2393FAA3F3002B00F01581AE
:102A0000B3FA83F3012101FA03F313438A4A936073
:102A1000926822F0F002F02393FAA3F3002B00F067
:102A20000681B3FA83F3012101FA03F31343824AC7
:102A30009360926822F470624FF4706393FAA3F388
:102A4000002B00F0F680B3FA83F3012505FA03F3B7
:102A50001343794A93604FF40058CDF82C808DF8D9
:102A6000345000248DF8354002278DF836700BA8BD
:102A700000F04EFE0B950C948DF834508DF83540D7
:102A80008DF836500BA800F043FE0B970C948DF890
:102A900034508DF835408DF836500BA800F038FED4
:102AA0004FF00409CDF82C900C948DF834508DF82B
:102AB00035408DF836500BA800F02AFEDFF890A1C3
:102AC000224641465046FFF716FF5C4E22462946F5
:102AD0003046FFF710FF224639463046FFF70BFF1E
:102AE000224649463046FFF706FF224641465046F9
:102AF000FFF7E3FE224629463046FFF7DEFE224678
:102B000039463046FFF7D9FE224649463046FFF7A0
:102B1000D4FE41F28F1305934FF00308CDF81880CF
:102B2000099405A9504601F0FFF9F0230593069595
:102B300007940894099405A94FF0904001F0F4F926
:102B40004FF4FE630593CDF81880099405A930462B
:102B500001F0EAF94FF4C0530593069507970894DE
:102B6000099405A9304601F0DFF94FF4007305938D
:102B7000069507970894099405A9504601F0D4F9E1
:102B80004FF48073059306970794089409940A9468
:102B900005A94FF0904001F0C7F94FF41843059391
:102BA000CDF81880099405A94FF0904001F0BCF9C8
:102BB000CDF81490CDF81880099405A9204801F0AB
:102BC000B3F908230593CDF81880099405A91D4889
:102BD00001F0AAF91C4EF06822460521C0F302203C
:102BE000FFF74CFE00FA09F0C0B2184D85F8060355
:102BF000F06822460521C0F30220FFF73FFE00FAED
:102C000009F0C0B285F80703F06822460521C0F339
:102C10000220FFF733FE00FA09F0C0B285F808037E
:102C20000EB0BDE8F0872023DBE62023EAE6202370
:102C3000F9E6202309E700BF000001400004004836
:102C4000000C0048001C004800ED00E000E100E03E
:102C50000008004800B583B0264B9A6C42F0010290
:102C60009A649A6C02F001020092009A9A6C42F007
:102C700002029A649B6C03F002030193019B002201
:102C800005210B2003F0D8F90B2003F0E5F9002211
:102C900005210E2003F0D0F90E2003F0DDF900220B
:102CA00005210F2003F0C8F90F2003F0D5F9002209
:102CB0000521102003F0C0F9102003F0CDF9002207
:102CC0000521112003F0B8F9112003F0C5F9002205
:102CD0000521442003F0B0F9442003F0BDF900229F
:102CE0000521452003F0A8F9452003F0B5F903B00C
:102CF0005DF804FB0010024008B5012006F072FDEB
:102D0000FBE708B50368B3F1804F00D008BD01F0C0
:102D1000E5FEFBE772B6FEE708B50B480B4B036018
:102D20004FF46133436000238360C36003610C226E
:102D300042618361C3610362436204F056FB00B9E0
:102D400008BDFFF7E7FF00BFF00700200044004088
:102D500008B50B480B4B03604FF416434360002348
:102D60008360C36003610C2242618361C3610362BB
:102D7000436204F03AFB00B908BDFFF7CBFF00BF88
:102D8000780800200038014000B587B00023009388
:102D9000019302930393049305932048204A026011
:102DA00043608360C36001220261082141610376B0
:102DB00043760221C16180F820304FF4A061816226
:102DC0004FF48061C16280F83020436380F838306E
:102DD00001F01CF9D8B9134B009306230193042387
:102DE00002937F22039204930023059369460B48C4
:102DF00001F06AFB68B90C4B00930C230193694600
:102E0000064801F061FB30B907B05DF804FBFFF73D
:102E100081FFFFF77FFFFFF77DFF00BF100B002052
:102E2000000004502000F0144000201900B589B0C3
:102E3000002304930593069307930193029303934E
:102E40001348144A02604F224260836042F20F72BC
:102E5000C2600361836100F0D3FE98B94FF48053E0
:102E6000049304A90A4800F009FF68B920230193DC
:102E70000023039301A9064800F080FF30B909B090
:102E80005DF804FBFFF746FFFFF744FFFFF742FF43
:102E9000880900200004004008B51048104B03606A
:102EA0004FF482734360002383604FF4E062C2609A
:102EB000036143614FF4007282613822C261036290
:102EC000436283620722C26203630823436303F001
:102ED00015FA00B908BDFFF71DFF00BF640A002006
:102EE0000038004008B50B480B4B03604FF4E1334A
:102EF000436000238360C36003610C2242618361ED
:102F0000C3610362436204F070FA00B908BDFFF7C1
:102F100001FF00BF00090020004C004008B50B482D
:102F20000B4B03604FF4E133436000238360C360C5
:102F300003610C2242618361C3610362436204F056
:102F400054FA00B908BDFFF7E5FE00BF680700208E
:102F50000048004000B597B04422002105A806F0C3
:102F600045FF0023009301930293039304934FF4CE
:102F7000007002F0C5FF58BB022305934FF4807226
:102F80000892402209920F931093012211920A2273
:102F90001292072213921493159305A801F078FE5C
:102FA000C0B90F23009303230193002302930393DB
:102FB00004930421684602F0A1F968B94FF08042F9
:102FC0004FF08071002001F0E3FD17B05DF804FBC5
:102FD000FFF7A0FEFFF79EFEFFF79CFE08B501F08D
:102FE00067FDFFF7B7FFFFF7A5FCFFF733FEFFF71D
:102FF00093FEFFF7ADFEFFF7C7FEFFF717FFFFF7E2
:103000004BFFFFF76FFFFFF789FF08F08FFF06F018
:103010005DFB054A0021054806F086FB044B18605D
:1030200006F066FBFEE700BFDCE50008F92C0008AF
:1030300044060020FEE7FEE7FEE7FEE7FEE77047F6
:10304000044B5B6913F0010F00D17047014B012263
:103050005A61FAE700040140044B5B6913F0020F68
:1030600000D17047014B02225A61FAE70004014087
:10307000044B5B6913F0040F00D17047014B04222D
:103080005A61FAE70004014008B5024802F0CEFE9A
:1030900008BD00BFC80A002008B5024802F0C6FEFD
:1030A00008BD00BF1C0A002008B5024802F0BEFEA1
:1030B00008BD00BFD409002008B5024802F0B6FEE2
:1030C00008BD00BF9006002008B5024802F0AEFE21
:1030D00008BD00BF4806002008B5024801F088F886
:1030E00008BD00BF100B002008B5024800F082FCAC
:1030F00008BD00BF780B002008B5024803F000FBB4
:1031000008BD00BF640A002008B5024803F080FC37
:1031100008BD00BF7808002008B5024803F078FC1D
:1031200008BD00BFF007002008B5024802F07EFE8F
:1031300008BD00BFD806002008B5024802F076FEA0
:1031400008BD00BF2007002000B583B00D4B1A6EEC
:1031500042F001021A661A6E02F001020092009A11
:103160009A6D42F080529A659B6D03F080530193F3
:10317000019B00220F216FF0010002F05DFF03B000
:103180005DF804FB0010024030B5A3B004460021F6
:103190001D911E911F9120912191682203A806F094
:1031A00025FE2268304B9A4201D023B030BD4FF447
:1031B000804303934FF080531A9302230493012218
:1031C00005920822069207220792089309934FF06E
:1031D00080730A9303A802F053FA00283DD1234BD1
:1031E000DA6C42F40052DA64DA6C02F400520192B2
:1031F000019ADA6C42F00102DA64DB6C03F001033D
:103200000293029B03231D930B231E9300251F95FE
:103210001DA94FF0904002F0FFFB1548154B0360CD
:1032200045608560C560802303614FF4807343610E
:103230004FF4806383612023C361056202F0EAFCDE
:1032400070B90B4B23659C6200220521122002F00D
:10325000F3FE122002F000FFA7E7FFF75BFDBEE7D9
:10326000FFF758FDEDE700BF0000045000100240DA
:10327000C80A00200800024010B588B0002303935C
:10328000049305930693079302682F4B9A4201D04B
:1032900008B010BD044603F5EC339A6D42F4804249
:1032A0009A659A6D02F480420192019ADA6C42F0BA
:1032B0000202DA64DB6C03F002030293029B4FF418
:1032C0006043039302230493032306930523079388
:1032D00003A91E4802F0A0FB1D481E4B03600123FA
:1032E000436000238360C360802202614361836185
:1032F000C361036202F08EFC00BB154BA3659C62A8
:103300001548164B0360012343601023836000239C
:10331000C3608022026143618361C361036202F082
:1033200079FC70B90C4B63659C6200220521242056
:1033300002F082FE242002F08FFEA9E7FFF7EAFCEC
:10334000DBE7FFF7E7FCEDE700380040000400484A
:103350001C0A002044000240D4090020580002400A
:1033600000B589B000230393049305930693079354
:103370000268124B9A4202D009B05DF804FB03F5D3
:1033800003339A6D42F002029A659A6D02F00202CE
:103390000192019ADA6C42F00402DA64DB6C03F009
:1033A00004030293029B4023039302230493079395
:1033B00003A9034802F030FBDEE700BF0004004031
:1033C0000008004870B5A8B004460021239124915C
:1033D000259126912791682209A806F007FD236808
:1033E000954A93420CD0954A934235D0944A9342E1
:1033F00000F09580934A934200F0F38028B070BDAE
:103400000823099309A802F03BF910BB8E4B9A6D73
:1034100042F400229A659A6D02F400220192019A08
:10342000DA6C42F00402DA64DB6C03F0040302930A
:10343000029B4FF44063239302232493002325939C
:10344000032326930823279323A9804802F0E4FA54
:10345000D4E7FFF75FFCD9E70123099309A802F03D
:103460000FF9002852D1784B1A6E42F480421A6646
:103470001A6E02F480420392039ADA6C42F001025F
:10348000DA64DB6C03F001030493049B4FF4C06324
:1034900023930226249600252595032326930723AC
:1034A000279323A94FF0904002F0B6FA6848694B81
:1034B000036046608560C560802303614561856166
:1034C000C561056202F0A6FB18BB614B63679C6295
:1034D0006148624B03600223436010238360002332
:1034E000C3608022026143618361C361036202F0B1
:1034F00091FB88B9584B23679C6200220521252047
:1035000002F09AFD252002F0A7FD77E7FFF702FC05
:10351000A9E7FFF7FFFBD8E7FFF7FCFBEAE7022389
:10352000099309A802F0ACF8002851D1464B9A6DD6
:1035300042F400329A659A6D02F400320592059ABF
:10354000DA6C42F00102DA64DB6C03F001030693EB
:10355000069B0C23239302262496002525950323FE
:1035600026930723279323A94FF0904002F054FAA3
:103570003B483C4B036046608560C5608023036127
:1035800045618561C561056202F044FB18BB344B9F
:1035900063679C623448354B036002234360102309
:1035A00083600023C3608022026143618361C36141
:1035B000036202F02FFB88B92B4B23679C62002229
:1035C0000521262002F038FD262002F045FD15E7F2
:1035D000FFF7A0FBAAE7FFF79DFBD8E7FFF79AFBF1
:1035E000EAE70423099309A802F04AF808BB164B3E
:1035F0009A6D42F480229A659A6D02F480220792B5
:10360000079ADA6C42F00402DA64DB6C03F004031C
:103610000893089B302323930223249300232593AC
:10362000032326930723279323A9084802F0F4F9DC
:10363000E4E6FFF76FFBDAE7004C0040003801409A
:1036400000440040004800400010024000080048CC
:103650002007002080040240D80600206C040240AD
:10366000900600206C0002404806002080000240C6
:1036700030B589B00446224B9A6D42F001029A653A
:103680009B6D03F001030193019B02A903A801F0C4
:1036900023FF069BD3B901F0FBFE0346194AA2FBA8
:1036A00003239B0C013B18484FF08042026040F21C
:1036B000E732C2604360002303618360836100F0EE
:1036C0009FFA054630B1284609B030BD01F0E0FE52
:1036D0004300E3E70C4800F04FF905460028F2D11B
:1036E0001C2002F0B9FC0F2C01D90125EBE70022C8
:1036F00021461C2002F0A0FC044B1C60E3E700BF45
:103700000010024083DE1B43780B002004000020E1
:103710000346027A002A00F0B08010B40068002846
:103720003FD05A7A012A1DD0022A26D062B1012048
:103730009A7A002A35D0022A3FD0032A48D0012A9B
:1037400025D040F002002CE002F1804202F58232E6
:10375000516821EA00015160196810680143116045
:103760000020E5E7504A116821EA0001116019685C
:103770005068014351600020DAE74B4A1168014369
:10378000116019685068014351600020D0E71C683F
:10379000454AD16821EA0401D1601968946821433F
:1037A00091605A68002A32D0597A012932D0022910
:1037B0003AD0B9B140F0040020E01C683A4A916860
:1037C00021EA040191601968D4682143D160E8E7D7
:1037D0001968354A9468214391601968D468214377
:1037E000D160DEE701F1804101F582314C6A24EAC3
:1037F00002024A625A680C6A22430A629A7A32B119
:10380000022A25D0032A2ED0012A16D001205DF8E5
:10381000044B704724490C6A24EA02020A625A687F
:103820004C6A22434A62E9E71F490C6A22430A6252
:103830005A684C6A22434A62E0E75C681A4AD16AD5
:1038400021EA0401D1625B68916A0B439362DEE76F
:103850005C68154A916A21EA040191625B68D16A49
:103860000B43D362D3E759680F4A946A21439162AC
:103870005B68D16A0B43D362C9E700680A4A1168E2
:1038800021EA000111601868516821EA00015160C5
:103890005868116A21EA000111625968536A23EAE3
:1038A00001035362002070470004014010B4036A12
:1038B000046A24F001040462846924F0F00C4CEAE8
:1038C000021223F00A030B43826103625DF8044B8A
:1038D000704710B4036A046A24F010040462846917
:1038E00024F4704C4CEA023223F0A00343EA0113A3
:1038F000826103625DF8044B7047836823F07003B4
:103900000B4343F0070383607047000090F83D309D
:10391000DBB2012B25D1022380F83D300368144A25
:10392000934210D0B3F1804F0DD0A2F59432934260
:1039300009D002F59E32934205D01A6842F0010286
:103940001A600020704799680A4A0A40062A0AD07D
:10395000B2F5803F09D01A6842F001021A600020D7
:10396000704701207047002070470020704700BF5B
:10397000002C01400700010090F83D30DBB2012B24
:103980002AD1022380F83D300268D36843F0010356
:10399000D3600368134A934210D0B3F1804F0DD027
:1039A000A2F59432934209D002F59E32934205D09B
:1039B0001A6842F001021A600020704799680A4AAA
:1039C0000A40062A0AD0B2F5803F09D01A6842F0B0
:1039D00001021A60002070470120704700207047E4
:1039E00000207047002C014007000100704770471D
:1039F0007047704770B504460368DE681D6915F0AE
:103A0000020F10D016F0020F0DD06FF002021A61F3
:103A10000123037703689B6913F0030F64D0FFF75A
:103A2000E6FF0023237715F0040F12D016F0040FE1
:103A30000FD023686FF004021A61022323772368F2
:103A40009B6913F4407F55D02046FFF7D0FF002339
:103A5000237715F0080F12D016F0080F0FD0236847
:103A60006FF008021A61042323772368DB6913F0DF
:103A7000030F46D02046FFF7BAFF0023237715F047
:103A8000100F12D016F0100F0FD023686FF0100235
:103A90001A61082323772368DB6913F4407F37D04A
:103AA0002046FFF7A4FF0023237715F0010F02D073
:103AB00016F0010F33D115F4025F02D016F0800F1B
:103AC00035D115F4807F02D016F0800F37D115F074
:103AD000400F02D016F0400F39D115F0200F02D060
:103AE00016F0200F3BD170BDFFF780FF2046FFF797
:103AF0007FFF96E72046FFF779FF2046FFF778FF24
:103B0000A5E72046FFF772FF2046FFF771FFB4E7F5
:103B10002046FFF76BFF2046FFF76AFFC3E72368E5
:103B20006FF001021A612046FFF7EBF8C3E7236844
:103B30006FF402521A61204600F05DF9C1E7236874
:103B40006FF480721A61204600F056F9BFE72368CF
:103B50006FF040021A612046FFF74BFFBDE7236874
:103B60006FF020021A61204600F044F9BBE7000024
:103B70000368224A904206D0B0F1804F03D0A2F5EC
:103B80009432904203D123F070034A6813431B4AD6
:103B900090420ED0B0F1804F0BD0A2F594329042FB
:103BA00007D002F59E32904203D002F58062904227
:103BB00003D123F44073CA68134323F080034A6996
:103BC000134303608B68C3620B6883620B4B98429C
:103BD00007D003F5A053984203D003F580639842C1
:103BE00001D10B69036301234361036913F0010FE2
:103BF00003D0036923F0010303617047002C0140E7
:103C000060B310B5044690F83D3013B3022384F836
:103C10003D30214651F8040BFFF7AAFF012384F839
:103C2000483084F83E3084F83F3084F8403084F8DF
:103C3000413084F8423084F8433084F8443084F8CA
:103C4000453084F8463084F8473084F83D30002011
:103C500010BD80F83C30FFF783FBD7E701207047A9
:103C600010B4846824F47F4C42EA03220A4342EAF7
:103C70000C0282605DF8044B7047000090F83C3005
:103C8000012B76D010B50446012380F83C30022386
:103C900080F83D3002689068374B034093600B68B2
:103CA000602B4CD029D8402B54D00CD9502B22D18A
:103CB000CA6849682068FFF7F9FD50212068FFF7BE
:103CC0001CFE002005E0202B0DD009D9302B0AD096
:103CD0000120012384F83D30002384F83C3010BDDE
:103CE0000BB1102B05D119462068FFF706FE002006
:103CF000EFE70120EDE70120EBE7B3F5805F34D07B
:103D0000B3F5005F0CD1CB684A6889682068FFF77B
:103D1000A7FF2268936843F4804393600020D8E7AC
:103D2000702B24D1CB684A6889682068FFF798FF18
:103D30002268936843F0770393600020C9E7CA685C
:103D400049682068FFF7C5FD60212068FFF7D5FDB1
:103D50000020BEE7CA6849682068FFF7A7FD402138
:103D60002068FFF7CAFD0020B3E70020B1E701207B
:103D7000AFE70220704700BF8800FEFF90F83C20AC
:103D8000012A33D030B40346012280F83C200222BD
:103D900080F83D20006842688468154DA84220D014
:103DA00022F070020D682A4342601A68104882426D
:103DB0000AD0B2F1804F07D0A0F59430824203D0F0
:103DC00000F59E30824204D124F0800489682143AA
:103DD0009160012283F83D20002083F83C0030BC34
:103DE000704722F470024D682A43D9E702207047D9
:103DF000002C014070477047704710B4046891FA76
:103E0000A1F3A3B1B3FA83F35B004FF0030C0CFAF8
:103E100003F324EA030391FAA1F151B1B1FA81F15C
:103E200049008A40134303605DF8044B7047202328
:103E3000EAE72021F4E710B4846891FAA1F3A3B172
:103E4000B3FA83F35B004FF0030C0CFA03F324EA9C
:103E5000030391FAA1F151B1B1FA81F149008A400D
:103E6000134383605DF8044B70472023EAE7202169
:103E7000F4E710B4C46891FAA1F3A3B1B3FA83F3E1
:103E80005B004FF0030C0CFA03F324EA030391FAEE
:103E9000A1F151B1B1FA81F149008A401343C360E5
:103EA0005DF8044B70472023EAE72021F4E710B4C3
:103EB000046A91FAA1F3A3B1B3FA83F39B004FF024
:103EC0000F0C0CFA03F324EA030391FAA1F151B1A8
:103ED000B1FA81F189008A40134303625DF8044B13
:103EE00070472023EAE72021F4E710B4446A090A66
:103EF00091FAA1F3A3B1B3FA83F39B004FF00F0C37
:103F00000CFA03F324EA030491FAA1F151B1B1FAD6
:103F100081F189008A40144344625DF8044B704784
:103F20002023EAE72021F4E7F8B507460E460D689E
:103F300095FAA5F515B1B5FA85F51BE0202519E030
:103F4000B26821463846FFF776FF3268F1687B6831
:103F500023EA020301FB02F213437B6016E072695D
:103F600021463846FFF7C1FF726821463846FFF701
:103F700044FF0135346834FA05F217D00122AA4013
:103F80001440F6D07368013B012BD9D93269214620
:103F90003846FFF76EFF7368022BE5D1FF2CDED8A1
:103FA000726921463846FFF782FFDDE70020F8BD41
:103FB00010B430300B0A9B0003F00C03C45801F01E
:103FC0001F014FF01F0C0CFA01FC24EA0C0CC2F389
:103FD00084628A404CEA0202C2505DF8044B70478A
:103FE00010B414304B0E9B0003F00403C458C1F30B
:103FF00004514FF0070C0CFA01FC24EA0C0C8A4027
:104000004CEA0202C2505DF8044B704730B583B0F1
:1040100000230193002800F0D6800446836D13B37B
:1040200023689A6812F0005F05D09A6822F0204257
:1040300022F03F029A602268936813F0805F1FD1DC
:10404000936823F0104323F03F0343F080539360C1
:104050005E4B1B689B095E4AA2FB03239B0901334D
:104060005B00019309E0FFF78FF80023E36584F814
:104070005430D5E7019B013B0193019B002BF9D103
:104080002268936813F0805F74D1A36D43F010032E
:10409000A365E36D43F00103E3650120936813F02A
:1040A000040300D00123A16D11F0100F40F08480B3
:1040B000002B40F08180A36D23F4817343F0020351
:1040C000A365936813F0010F0BD1424B9B6813F06B
:1040D000010F06D1636840498A6822F47C121343B9
:1040E0008B60627E636B43EA4233E2681343A268EB
:1040F000134394F8202043EA0243012A3CD0A26AE9
:1041000022B102F47072E16A0A4313432168CD6858
:10411000324A2A401A43CA602268936813F008039F
:1041200000D00123BBB9E36C217E43EA813394F8CC
:10413000301043EA4101D36823F4804323F006039F
:104140000B43D36094F83830012B1AD022681369DE
:1041500023F0010313612369012B24D02268136B20
:1041600023F00F031363A36D23F0030343F0010354
:10417000A36526E0002091E7626A013A43EA4243E0
:10418000BDE721680B6923F4FF6323F00403E26BAE
:10419000256C2A43656C2A43A56C2A43134343F0DC
:1041A00001030B61D7E721680B6B23F00F03E26972
:1041B000013A13430B63D6E7A36D43F01003A365E5
:1041C000012003B030BD0120FBE700BF0800002044
:1041D000632D3E05000004500003045007C0F0FFAB
:1041E000704708B5806AFFF7FBFF08BD704770474E
:1041F00070B5044603681E685D6816F0020F10D0A3
:1042000015F0020F0DD0836D13F0100F03D1836DE5
:1042100043F400638365204600F048FC23680222D3
:104220001A6016F0040F02D015F0040F05D116F035
:10423000080F3AD015F0080F37D0A36D13F0100F08
:1042400003D1A36D43F40073A3652368DA6812F405
:10425000406F24D1DA6812F4005F20D11A6812F09E
:10426000080F1CD09A6812F0040F10D15A6822F07F
:104270000C025A60A36D23F48073A365A36D13F43D
:10428000805F0CD1A36D43F00103A36507E0A36D2C
:1042900043F01003A365E36D43F00103E36520469B
:1042A00008F088FE23680C221A6016F0200F02D056
:1042B00015F0200F05D116F0400F4CD015F0400F2F
:1042C00049D0A36D13F0100F03D1A36D43F4005335
:1042D000A3652368DA6C12F0C00F2AD10121DA68D5
:1042E00012F4406F27D10120DA6871B312F0007F19
:1042F00003D050B312F4005F27D1196811F0400FBA
:1043000023D012F4001F20D19A6812F0080F14D1A4
:104310005A6822F060025A60A36D23F48053A365AB
:10432000A36D13F4807F10D1A36D43F00103A36547
:104330000BE00021D3E70020D6E7A36D43F0100384
:10434000A365E36D43F00103E365204600F0AAFB9B
:10435000236860221A6016F0800F02D015F0800FDB
:104360002DD116F4807F02D015F4807F32D116F45F
:10437000007F02D015F4007F38D116F0100F17D04F
:1043800015F0100F14D0636B23B12368DB6813F0B2
:10439000010F0AD0A36D43F48063A365E36D43F07E
:1043A0000203E3652046FFF722FF236810221A600C
:1043B00016F4806F02D015F4806F23D170BDA36D09
:1043C00043F48033A3652046FFF710FF2368802263
:1043D0001A60C6E7A36D43F40033A365204600F0DE
:1043E00063FB23684FF480721A60C0E7A36D43F447
:1043F0008023A365204600F058FB23684FF4007229
:104400001A60BAE7A36D43F48043A365E36D43F0FC
:104410000803E36523684FF480621A60204600F0C9
:1044200042FBCBE708B50346806A826D12F0500F5D
:1044300030D1836D43F40073836503681A6812F00A
:10444000080F14D0DA6812F4406F20D1DB6813F43F
:10445000005F1CD1836D23F480738365836D13F437
:10446000805F14D1836D43F0010383650FE0DB6847
:1044700013F0020F0BD1836D23F480738365836D7A
:1044800013F4805F03D1836D43F00103836508F06B
:1044900091FD08BD826D12F0100F04D1026D526BB8
:1044A00018469047F5E7FFF7A2FEF2E708B5806AE5
:1044B000836D43F040038365C36D43F00403C3651C
:1044C000FFF795FE08BD0000F0B583B0002301930F
:1044D00090F85430012B00F00C8204460D46012365
:1044E00080F854300068836813F0040F09D0A36D7E
:1044F00043F02003A3650120002384F8543003B067
:10450000F0BD4968052907D80239032971D8DFE8C9
:1045100001F002726B6D0C212A68FFF749FD2068DB
:10452000836813F0040300D00123826812F00802AC
:1045300000D0012223BB1ABBAA68B2F1004F5CD0A5
:104540002968FFF74DFD2268536923F0004353614A
:1045500069692268D368C3F3C1035B009940286985
:10456000042854D02E68603252F82070A74B3B408C
:1045700006F0F84631430B4343F0004342F8203045
:104580002268936813F0010F17D12B68E868D2F8FE
:10459000B010C3F3120621EA060100F0180C9C4883
:1045A00020FA0CF00340C3F312030B43C2F8B030FF
:1045B000EA68984B9A4200F091802B68964A134221
:1045C00000F09381954A926802F0E07094498B4222
:1045D00000F03D8193498B4200F0608192498B420B
:1045E00000F07081002087E7182195E74FF4807173
:1045F00092E7062190E712218EE700222968FFF753
:10460000EFFC2268536943F000435361A0E7136E47
:10461000116EC1F384612B68C3F3120078BBC3F33E
:104620008463994233D021684B6E4A6EC2F3846230
:104630002B68C3F3120078BBC3F384639A4233D070
:1046400021688B6E8A6EC2F384622B68C3F31200FA
:1046500078BBC3F384639A4233D02168CB6ECA6EB1
:10466000C2F384622B68C3F3120078BBC3F3846384
:104670009A4285D1CB6E23F00043CB6680E793FA54
:10468000A3F313B1B3FA83F3CBE72023C9E7136E87
:1046900023F000431366C6E793FAA3F313B1B3FA0A
:1046A00083F3CBE72023C9E74B6E23F000434B662F
:1046B000C6E793FAA3F313B1B3FA83F3CBE720234E
:1046C000C9E78B6E23F000438B66C6E793FAA3F32A
:1046D00013B1B3FA83F3CBE72023C9E720682B6833
:1046E000C3F3120626BB9A0E013202F01F02092AFA
:1046F0008CBF00220122002A52D046BB990E013104
:10470000890601F0F84176BB9F0E013707F01F07BD
:104710000122BA401143AEBB9B0E013303F01F03CD
:1047200003EB43031B051943AA68FFF759FC44E751
:1047300093FAA3F24AB1B2FA82F2013202F01F02F6
:10474000092A8CBF00220122D5E72022F5E793FA3F
:10475000A3F131B1B1FA81F10131890601F0F841DB
:10476000D1E72021F8E793FAA3F24AB1B2FA82F234
:10477000013202F01F024FF0010C0CFA02F2C9E7FD
:104780002022F5E793FAA3F343B1B3FA83F301339D
:1047900003F01F0303EB43031B05C4E72023F6E7E5
:1047A000CEB9990E0131890601F0F841FEB99F0E8C
:1047B000013707F01F070122BA401143B6BB9B0E19
:1047C000013303F01F0303EB43031E3B1B0543F0C0
:1047D00000731943A8E793FAA3F131B1B1FA81F15B
:1047E0000131890601F0F841E0E72021F8E793FA6A
:1047F000A3F24AB1B2FA82F2013202F01F024FF084
:10480000010C0CFA02F2D8E72022F5E700F0FF03D2
:10481000FFFF070000007F400000088000030450F5
:10482000000052C7000084CB0100008093FAA3F37C
:104830005BB1B3FA83F3013303F01F0303EB4303CC
:104840001E3B1B0543F00073C3E72023F3E712F47C
:10485000000F7FF4BFAE2268274B9A4201D00020A0
:104860004AE640F4000325498A6822F0E0721343C7
:104870008B60234B1B689B09224AA2FB03239B09E5
:10488000013303EB43039B00019302E0019B013BD7
:104890000193019B002BF9D100202DE612F0807FBF
:1048A0007FF49CAE2268144B9A4201D0002023E68C
:1048B00040F0807311498A6822F0E07213438B60E4
:1048C000002019E612F4800F11D122680A4B9A4297
:1048D00001D0002010E640F4800308498A6822F0E5
:1048E000E07213438B60002006E6002004E60020FF
:1048F00002E6022003E600BF00000450000304505B
:1049000008000020632D3E0530B583B000230193DD
:1049100003689A6812F0010F58D1044699682D4A2D
:10492000114219D19A6822F0004222F03F0242F06F
:1049300001029A60284B9B6813F4000F1CD0274B90
:104940001B689B09264AA2FB03239B09013303EB47
:1049500043039B0001930CE0836D43F010038365D8
:10496000C36D43F00103C365012030E0019B013BAF
:104970000193019B002BF9D100F0BCF80546236898
:104980001A6812F0010F1FD19A6812F0010F07D1B7
:104990009A6822F0004222F03F0242F001029A603F
:1049A00000F0A8F8431B022BE9D923681B6813F019
:1049B000010FE4D1A36D43F01003A365E36D43F051
:1049C0000103E365012002E0002000E0002003B0C5
:1049D00030BD00BF3F0000800003045008000020ED
:1049E000632D3E0570B504460068806810F0040F22
:1049F0004ED10E46154694F85430012B4AD001236F
:104A000084F854302046FFF77FFF00283CD1A36D87
:104A100023F4706323F0010343F48073A365A36D53
:104A200013F4805F2DD0E36D23F00603E365236D5F
:104A3000194ADA62236D194A1A63236D184A5A63B8
:104A400023681C221A60002384F8543022685368BB
:104A500043F0100353602268D36843F00103D3602E
:104A600021682B4632464031206D01F057F922680B
:104A7000936823F0004323F03F0343F00403936063
:104A800007E00023E365D2E7002384F8543000E018
:104A9000022070BD0220FCE725440008E341000825
:104AA000AD4400087047704770477047704700007A
:104AB00010B5094A136843F480731360032001F0B2
:104AC000A9FA0020FEF7D4FD10B10124204610BD44
:104AD0000446FEF739FBF9E700200240034B1B7840
:104AE000034A11680B441360704700BF01000020A7
:104AF000C40B0020014B1868704700BFC40B002096
:104B000030B583B00446204B9B6D13F0805F0BD013
:104B100001F0EEF9B0F5007F17D0802C1FD82DD012
:104B2000702C2DD000211BE0174DAB6D43F080534E
:104B3000AB65AB6D03F080530193019B01F0D8F995
:104B4000AB6D23F08053AB65E4E7802C03D9A02C38
:104B500003D9022104E0002102E0012100E0032149
:104B60000A4A136823F007030B431360136803F02A
:104B700007038B4206D1002003B030BD0221EFE7CE
:104B80000121EDE70120F7E700100240002002407C
:104B900070B586B00D4616460F4CE36C43F001032A
:104BA000E364E36C03F001030093009B4FF4807314
:104BB000019302230293049300230393059301A915
:104BC0004FF0904000F028FFA36823F0FE433543E8
:104BD0002B43A36006B070BD00100240284A9368C2
:104BE000D26802F0030213F00C030AD00C2B06D09B
:104BF000042B1FD0082B20D00020024610E0012AF1
:104C0000F6D11F4A126812F0080F0CD11C4AD2F8D4
:104C10009420C2F303221B4951F8222043B1002003
:104C20000C2B0DD07047164A1268C2F30312F2E73C
:104C30001046F5E714480022F2E714480022EFE797
:104C40000F4BDB6803F00303022B16D0032B00D1BC
:104C50000E4A0B49CB68C3F302130133C868C0F393
:104C6000062002FB00F0B0FBF3F0CB68C3F3416316
:104C700001335B00B0FBF3F0D4E7034AE9E700BF80
:104C80000010024000E600080024F40000127A0040
:104C9000002800F01C83F0B583B00446964B9D6855
:104CA00005F00C05DE6806F00306036813F0100F2C
:104CB0005AD0E5B10C2D18D0A369002B00F0BB80B1
:104CC0008D4A136843F001031360FFF713FF074693
:104CD000894B1B6813F0020F40F09A80FFF70AFF20
:104CE000C01B0228F4D90320FCE2012EE4D1824B40
:104CF0001B6813F0020F03D0A369002B00F0E982B8
:104D0000206A7D4B1B6813F0080F5BD07A4B1B6841
:104D100003F0F00398425CD8774B1A6842F008021F
:104D20001A601A6822F0F002216A0A431A605A686F
:104D300022F47F42E16942EA01225A60002D60D0EC
:104D4000FFF74CFF6C4B9B68C3F303136B4AD35CB8
:104D500003F01F03D8406A4B18606A4B1868FEF7CF
:104D600087FC002840F0BE82236813F0010F00F09A
:104D70008180082D75D00C2D71D06368B3F5803F0C
:104D800000F09780B3F5A02F00F099805A4B1A6875
:104D900022F480321A601A6822F480221A60636852
:104DA000002B00F09980FFF7A5FE0746524B1B68C9
:104DB00013F4003F5ED1FFF79DFEC01B6428F5D9B8
:104DC00003208FE24C4BD3F894301B0903F0F0031F
:104DD000A0E7FFF795FE002840F07D82464B1A6859
:104DE00042F008021A601A6822F0F002216A0A43AF
:104DF0001A605A6822F47F42E16942EA01225A604D
:104E00009EE7206AFFF77CFE002899D0012069E226
:104E1000394B1A6842F008021A601A6822F0F00250
:104E2000216A0A431A605A6822F47F42E16942EA21
:104E300001225A6098E7304A136823F00103136097
:104E4000FFF758FE07462C4B1B6813F0020F8BD060
:104E5000FFF750FEC01B0228F5D9032042E2032EC3
:104E60008BD1254B1B6813F4003F03D06368002BE4
:104E700000F03382236813F0020F58D0042D45D080
:104E80000C2D41D0E368002B77D01B4A136843F404
:104E900080731360FFF72EFE0646174B1B6813F452
:104EA000806F61D1FFF726FE801B0228F5D9032011
:104EB00018E2114A136843F4803313606FE703F17B
:104EC0008043A3F53C331A6842F480221A601A68C2
:104ED00042F480321A6062E7FFF70CFE0746064B89
:104EE0001B6813F4003FC5D0FFF704FEC01B642805
:104EF000F5D90320F6E100BF0010024038E60008B3
:104F00000800002004000020022EBBD1A44B1B6827
:104F100013F4806F03D0E368002B00F0E081A04A17
:104F2000536823F0FE43216943EA01635360236819
:104F300013F0080F4CD063699BB3994AD2F89430B0
:104F400043F00103C2F89430FFF7D4FD0646944BBA
:104F5000D3F8943013F0020F3AD1FFF7CBFD801B4A
:104F60000228F4D90320BDE18D4A536823F0FE43A3
:104F7000216943EA01635360D9E7894A136823F43E
:104F800080731360FFF7B6FD0646854B1B6813F46C
:104F9000806FCCD0FFF7AEFD801B0228F5D903202F
:104FA000A0E17F4AD2F8943023F00103C2F8943094
:104FB000FFF7A0FD06467A4BD3F8943013F0020FAA
:104FC00006D0FFF797FD801B0228F4D9032089E162
:104FD000236813F0040F7AD0714B9B6D13F0805F40
:104FE00036D16F4B9A6D42F080529A659B6D03F0FB
:104FF00080530193019B01266A4B1B6813F4807F49
:1050000028D0A368012B39D0052B3FD0644BD3F8AF
:10501000902022F00102C3F89020D3F8902022F0D3
:105020000402C3F89020A368002B3DD0FFF762FD77
:1050300007465B4BD3F8903013F0020F46D1FFF7D1
:1050400059FDC01B41F288339842F2D9032049E14F
:105050000026D1E7534A136843F480731360FFF7C7
:1050600049FD07464F4B1B6813F4807FC9D1FFF7FA
:1050700041FDC01B0228F5D9032033E1484AD2F88C
:10508000903043F00103C2F89030CCE7444BD3F8A2
:10509000902042F00402C3F89020D3F8902042F010
:1050A0000102C3F89020BEE7FFF724FD07463C4B02
:1050B000D3F8903013F0020F08D0FFF71BFDC01B90
:1050C00041F288339842F2D903200BE1E6B9236814
:1050D00013F0200F35D0636AE3B1314AD2F898302B
:1050E00043F00103C2F89830FFF704FD06462C4B4D
:1050F000D3F8983013F0020F23D1FFF7FBFC801B8D
:105100000228F4D90320EDE0254A936D23F0805363
:105110009365DCE7224AD2F8983023F00103C2F805
:105120009830FFF7E7FC06461D4BD3F8983013F094
:10513000020F06D0FFF7DEFC801B0228F4D9032003
:10514000D0E0A36A002B00F0CC80022B17D00C2DEE
:1051500000F0CC80124A136823F080731360FFF7CD
:10516000C9FC04460E4B1B6813F0007F00F0A880BA
:10517000FFF7C0FC001B0228F4D90320B2E0084B63
:10518000DB6803F00301E26A91420DD00C2D00F0C0
:10519000AB80034B1B6813F0806F2FD00120A1E080
:1051A000001002400070004003F07002216B0139D2
:1051B000B2EB011FEAD103F4FE42616BB2EB012FA7
:1051C000E4D103F07842A16BB2EBC16FDED103F4FE
:1051D000C001E26B5208013AB1EB425FD6D103F055
:1051E000C063226C5208013AB3EB426FCED1404B00
:1051F0001B6813F0007F49D0002073E03C4A13681D
:1052000023F080731360FFF775FC0546384B1B686D
:1052100013F0007F06D0FFF76DFC401B0228F5D984
:1052200003205FE0324AD36832491940E36A206BB9
:10523000013843EA0013606B43EA0023E06B400847
:10524000013843EA4053206C4008013843EA406388
:10525000A06B43EAC0631943D160136843F08073C5
:105260001360D36843F08073D360FFF743FC0446B8
:105270001F4B1B6813F0007F06D1FFF73BFC001BA0
:105280000228F5D903202DE000202BE0184B1A68E6
:1052900042F080721A60DA6842F08072DA60FFF7DA
:1052A00029FC0446124B1B6813F0007F06D1FFF760
:1052B00021FC031B022BF5D9032013E0002011E091
:1052C0000B4AD1680C4B0B40D36000200AE0012050
:1052D0007047012006E0012004E0012002E00120E7
:1052E00000E0002003B0F0BD0120FBE70120F9E75A
:1052F000001002408C809D01FCFFEEFE002800F0B3
:10530000AF8070B50D460446594B1B6803F0070388
:105310008B420BD2564A136823F007030B431360EA
:10532000136803F007038B4240F09C80236813F05E
:10533000020F0CD0A2684F4B9B6803F0F0039A4217
:1053400005D94C498B6823F0F0031A438A6023681F
:1053500013F0010F39D06368032B09D0022B26D03C
:1053600063BB444A126812F0020F06D1012076E0B6
:10537000404A126812F0007F76D03E498A6822F0D7
:10538000030213438B60FFF7B5FB0646394B9B685E
:1053900003F00C036268B3EB820F16D0FFF7AAFB91
:1053A000801B41F288339842F0D9032057E0314AFC
:1053B000126812F4003FE0D1012050E02D4A12683B
:1053C00012F4806FD9D1012049E0236813F0020F55
:1053D0000CD0A268274B9B6803F0F0039A4205D2D9
:1053E00024498B6823F0F0031A438A60204B1B6822
:1053F00003F00703AB420AD91D4A136823F00703E1
:105400002B431360136803F00703AB422ED12368CC
:1054100013F0040F06D0174A936823F4E063E168A1
:105420000B439360236813F0080F07D0114A936869
:1054300023F46053216943EAC1039360FFF7CEFB75
:105440000C4B9B68C3F303130B4AD35C03F01F039D
:10545000D8400A4B18600A4B1868FEF709F970BD6E
:10546000012070470120FAE70120F8E70120F6E764
:10547000002002400010024038E60008080000202A
:1054800004000020014B1868704700BF080000208E
:1054900008B5FFF7F7FF054B9B68C3F30223044AE7
:1054A000D35C03F01F03D84008BD00BF00100240CA
:1054B00030E6000808B5FFF7E5FF054B9B68C3F32E
:1054C000C223044AD35C03F01F03D84008BD00BFC9
:1054D0000010024030E600080F2303600B4B9A686F
:1054E00002F0030242609A6802F0F00282609A6859
:1054F00002F4E062C2609B68DB0803F4E0630361CE
:10550000034B1B6803F007030B6070470010024059
:1055100000200240F8B504460D46584BDB6813F0F6
:10552000030F17D0554BDB6803F003030268934267
:1055300001D0012616E0002A00F09E804F4BDB6868
:10554000C3F3021301334268934201D0012609E0FC
:1055500000261BE00368022B57D0032B5CD0012BE5
:1055600002D001263046F8BD444A126812F0020FFC
:105570005ED04248C26822F073026168013943EA92
:1055800001131343C3600026002EEBD13B4A13687E
:1055900023F080631360FFF7ADFA0746374B1B68B3
:1055A00013F0006F05D0FFF7A5FAC31B022BF5D946
:1055B0000326002ED6D1002D3CD130490B6923F0B3
:1055C000784323F4FE43A068E268D20642EA002250
:1055D00013430B61294A136843F080631360FFF79C
:1055E00089FA0546254B1B6813F0006F05D1FFF7BC
:1055F00081FA401B0228F5D90326002EB2D11F4A9A
:105600001369A1690B431361ACE71C4A126812F4D9
:10561000806FAED10126A5E7184A126812F4003F48
:10562000A7D1164A126812F4802FA2D1012699E759
:105630000126A9E7012D0FD01048026922F0C062AF
:1056400022F4FE42A16863695B08013B5B0643EA02
:1056500001231A430261BDE70848026922F4C0022F
:1056600022F4FE42A16823695B08013B5B0543EA23
:1056700001231A430261ADE7012673E700100240DF
:105680002DE9F04182B00446036813F4006F25D081
:10569000C36CB3F5000F06D0B3F5400F12D04BB179
:1056A000012637461CE0444AD36843F48033D36074
:1056B000002708E000210430FFF72CFF074610B157
:1056C00006460DE000273C4AD2F8883023F4400318
:1056D000E16C0B43C2F88830002601E00026374613
:1056E000236813F4003F70D0334B9B6D13F0805F41
:1056F0004CD1314B9A6D42F080529A659B6D03F00C
:1057000080530193019B4FF001082C4A136843F426
:1057100080731360FFF7EEF90546284B1B6813F4FE
:10572000807F05D1FFF7E6F9401B0228F5D9032752
:10573000002F45D1204BD3F8903013F4407315D08F
:10574000626E9A4212D01C4AD2F8903023F4407311
:10575000D2F8901041F48031C2F89010D2F8901035
:1057600021F48031C2F89010C2F8903013F0010F8C
:105770000FD1002F40F016810F4AD2F8903023F459
:105780004073616E0B43C2F890301AE04FF000088E
:10579000BBE7FFF7AFF90546074BD3F8903013F09E
:1057A000020FE6D1FFF7A6F9401B41F28833984279
:1057B000F2D90327DDE700BF00100240007000406F
:1057C0003E46B8F1000F40F0EF80236813F0010F60
:1057D00008D0904AD2F8883023F00303216A0B43A3
:1057E000C2F88830236813F0020F08D0894AD2F833
:1057F000883023F00C03616A0B43C2F888302368B9
:1058000013F0040F08D0834AD2F8883023F0300315
:10581000A16A0B43C2F88830236813F0080F08D040
:105820007C4AD2F8883023F0C003E16A0B43C2F807
:105830008830236813F0200F08D0764AD2F88830D9
:1058400023F44063216B0B43C2F88830236813F4C0
:10585000007F08D06F4AD2F8883023F44023616C6F
:105860000B43C2F88830236813F4806F08D0694A6C
:10587000D2F8883023F44013A16C0B43C2F888306F
:10588000236813F0400F08D0624AD2F8883023F41E
:105890004053616B0B43C2F88830236813F0800FCC
:1058A00008D05C4AD2F8883023F44043A16B0B4304
:1058B000C2F88830236813F4807F08D0554AD2F8A4
:1058C000883023F44033E16B0B43C2F888302368FF
:1058D00013F4801F08D04F4AD2F89C3023F0030302
:1058E000216C0B43C2F89C30236813F4005F0FD087
:1058F000484AD2F8883023F04063216D0B43C2F848
:105900008830236DB3F1006F54D0B3F1806F56D05F
:10591000236813F4002F0FD03E4AD2F8883023F0CA
:105920004063616D0B43C2F88830636DB3F1006F63
:105930004DD0B3F1806F4FD0236813F4802F0FD078
:10594000344AD2F8883023F04063A16D0B43C2F88B
:105950008830A36DB3F1006F46D0B3F1806F48D0AB
:10596000236813F4804F0CD02A4AD2F8883023F0F1
:105970004053E16D0B43C2F88830E36DB3F1805FB3
:105980003FD0236813F4803F08D0224AD2F88830F1
:1059900023F00043216E0B43C2F88830304602B03A
:1059A000BDE8F0813E460CE71A4A936D23F0805320
:1059B00093650AE7D36843F48013D360A8E7012115
:1059C000201DFFF7A7FD0028A2D00646A0E7D36858
:1059D00043F48013D360AFE70121201DFFF79AFD48
:1059E0000028A9D00646A7E7D36843F48013D36004
:1059F000B6E70121201DFFF78DFD0028B0D0064637
:105A0000AEE70221201DFFF785FD0028B9D006462C
:105A1000B7E700BF00100240F0B583B0002362E09A
:105A200085685E000324B44025EA0405CC68B440D0
:105A30002C438460456825EA0C054C68C4F30014C7
:105A40009C402C4344605FE0DD08083550F8254059
:105A500003F0070C4FEA8C0C4FF00F0E0EFA0CFE01
:105A600024EA0E0E0C6904FA0CF444EA0E0440F821
:105A7000254060E0042400E0002404FA0EF42C43E6
:105A80000CF1020C524D45F82C40524CA568D44301
:105A900025EA02064F6817F4801F01D042EA050686
:105AA0004C4DAE60ED6804EA05064F6817F4001F20
:105AB00001D042EA0506474DEE606D6804EA05062E
:105AC0004F6817F4003F01D042EA0506414D6E6071
:105AD0002D682C404E6816F4803F01D042EA050440
