:020000040800F2
:1000000000000220A5DE00081530000817300008A7
:10001000193000081B3000081D30000800000000E7
:10002000000000000000000000000000E19A00084D
:100030001F30000800000000819B00087B9600082C
:10004000F5DE0008F5DE0008F5DE0008F5DE000844
:10005000F5DE0008F5DE0008213000083930000820
:1000600051300008F5DE0008F5DE000869300008B0
:10007000F5DE0008F5DE0008793000088930000858
:1000800099300008A9300008B9300008F5DE0008F2
:10009000F5DE0008F5DE0008F5DE0008F5DE0008F4
:1000A000F5DE0008F5DE0008F5DE0008F5DE0008E4
:1000B000C9300008F5DE000800000000F5DE000889
:1000C000F5DE0008F5DE0008F5DE0008F5DE0008C4
:1000D000D9300008E9300008F9300008F5DE0008E2
:1000E000F5DE0008F5DE000800000000000000005A
:1000F0000000000000000000000000000000000000
:1001000000000000F5DE000800000000F5DE000839
:10011000F5DE000800000000F5DE00080000000029
:10012000F5DE0008F5DE0008F5DE0008F5DE000863
:10013000F5DE0008F5DE0008F5DE0008000000002E
:10014000F5DE0008F5DE0008F5DE0008F5DE000843
:100150000931000819310008F5DE0008F5DE000855
:10016000F5DE0008F5DE0008F5DE000800000000FE
:1001700000000000F5DE00080000000000000000A4
:10018000F5DE0008F5DE0008F5DE0008F5DE000803
:08019000F5DE0008000000008C
:1001A0000348044B834202D0034B03B11847704706
:1001B0002006002020060020000000000548064B15
:1001C0001B1AD90F01EBA301491002D0034B03B155
:1001D000184770472006002020060020000000007D
:1001E00010B5064C237843B9FFF7DAFF044B13B17F
:1001F0000448AFF300800123237010BD20060020C7
:1002000000000000F8DE000808B5044B1BB10449EB
:100210000448AFF30080BDE80840CFE700000000CD
:1002200024060020F8DE000870B50F4B0F4DAB42DE
:10023000A3EB050607D0B610002455F8043B0134A3
:100240009847A642F9D80DF057FE094D094B5E1BA1
:10025000AB424FEAA60606D0002455F8043B013411
:100260009847A642F9D870BD48EA000848EA000855
:1002700048EA00084CEA000838B510EE105A25F09C
:100280000044B4F1A14FF0EE407A0DD3B4F1FF4F2A
:1002900058D8DFED4F7A9FED4F7A002DCCBFB0EEEE
:1002A000470AB0EE670A38BD4B4B9C4259D8B4F1AF
:1002B000445F4AD34FF0FF3227EEA76A9FED475ABB
:1002C0009FED477ADFED475ADFED474A66EE066A53
:1002D000531CA6EE857AE6EEA54A9FED445ADFED63
:1002E000445AA7EE265AE4EEA65A9FED427ADFED75
:1002F000424AA5EE267AE5EEA64A9FED405ADFED8A
:10030000405AA7EE265A9FED3F7AA4EEA67AE5EE74
:10031000265A27EE267AA5EE867A27EE877A35D0FA
:10032000394B03EB820393ED046AD3ED006A37EE99
:10033000467A002D37EE677A36EEC70AB3DAB1EEA9
:10034000400A38BD30EE000A38BD9FED307A30EEFD
:10035000077AF7EE006AB4EEE67AF1EE10FAA9DD5C
:1003600038BD00F07DF82A4B9C4212D8A3F5D0038B
:100370009C4223D8F0EE007ABFEE007AA0EE277AF6
:10038000002230EE270AC7EE007A95E737EEC70A5B
:1003900038BD204B9C420BD8F7EE087AB7EE007AB6
:1003A000A0EE277A022230EE670AC0EE077A83E7D2
:1003B000BFEE007AC7EE007A03227DE7F7EE007AFF
:1003C00030EE677A30EE270A0122C7EE007A73E733
:1003D000DB0FC9BFDB0FC93FFFFFDF3ED769853C9D
:1003E00059DA4B3D21A215BD6BF16EBD356B883DD1
:1003F00095879DBD6E2EBA3D388EE3BD2549123ED0
:10040000ABAAAA3ECDCC4CBE18DF0008CAF2497197
:10041000FFFF973FFFFF1B4008B52DED028BF0EE6D
:10042000408AB0EE608A00F04FF8F4EE488AF1EEB0
:1004300010FA06D6DFED098AB4EE688AF1EE10FAFA
:1004400002D0BDEC028B08BD0DF062ED88EEA80A6B
:10045000BDEC028B2123036008BD00BF000000003B
:1004600010EE103A23F0004300EE103A704700BF40
:1004700008B52DED028BB0EE408A00F0FDF8B4EE29
:10048000488AF1EE10FAF0EE408A0AD6B0EE480A39
:10049000FFF7E6FFF7EE007AB4EEE70AF1EE10FAA6
:1004A00004DCB0EE680ABDEC028B08BD0DF030ED47
:1004B000BDEC028B034621221A600248BDE80840C9
:1004C00000F046BB90E5000830B583B0CDED010AE1
:1004D000019A22F0004E0EF1FF33B3F1FF4F42D2EA
:1004E00010EE104A24F00040B0F1FF4F3BD27045AF
:1004F0003FDB04F000413ED014F0FF4F02F0FF4517
:1005000058D14FEA002C6FF07D034FEA4C0CBCF140
:10051000000F03F1FF33F8DC002D5CD14FEA0E220F
:100520006FF07D0C52000CF1FF3CFBD513F17E0FF8
:1005300063DA6FF07D02D21A90406FF07D02A2EB79
:100540000C020EFA02F2B3EB0C0305D11AE012D042
:100550004FEA4E00013B15D0A0EB020EBEF1000F9A
:10056000F5DA4000F6E7DDED017A60EE277A87EEF6
:10057000A70A03B030BD234B03EB517393ED000A80
:1005800003B030BD831A48BF03461BB9F3E75B00D5
:100590000CF1FF3CB3F5000FF9DB1CF17E0F23DB00
:1005A000A3F500030CF17F0C0B4343EACC5300EEA0
:1005B000103ADEE7C3157F3B002DAFD04FEAEE5E69
:1005C000C4F31604AEF17F0C44F40000C2F316022B
:1005D00042F40002B7E76FF07D044FEAEE5EE41AE2
:1005E000AEF17F0CA040F1E76FF07D02A2EB0C02B0
:1005F00013410B4300EE103ABBE7C4F3160444F476
:1006000000009AE738DF000810EE103A184923F08E
:1006100000428A421AD9B2F1FF4F02D330EE400AAB
:10062000704700B583B0684600F06AFD00F0030033
:100630000128DDED010A9DED000A10D0022809D045
:1006400090B900F08BFA03B05DF804FBDFED090A06
:1006500000F084BA00F082FAB1EE400AF3E700F04D
:1006600007FDB1EE400AEEE7012000F001FDEAE7E8
:10067000D80F493F0000000008B510EE102A22F004
:100680000043B3F17E5F2DED028B12D00AD8B3F197
:100690007C5F19D2B3F10C5F6AD8BDEC028B9FED81
:1006A000760A08BD70EE407A87EEA70ABDEC028B91
:1006B00008BDBDEC028B9FED710ADFED717A002A57
:1006C000C8BFB0EE670A08BD002AC0F28E80F7EE00
:1006D000008A38EEC00AF6EE007A20EE278AB0EEE5
:1006E000480A01F05BF9DFED677A9FED677ADFED8D
:1006F000676ADFED675A9FED676AA8EE277ADFED3C
:10070000667AE7EE086AE8EE067AE6EE885A9FED2A
:10071000636A9FED637ADFED636AA5EE886AA7EEF0
:10072000887ADFED617AE6EE087A10EE103AE7EEAD
:10073000086A6FF30B03B0EE677A07EE903AF0EEBB
:10074000485AE7EEE75AE6EE888A30EE276A27EE47
:10075000087AC5EE866A87EE286ABDEC028BB0EE99
:10076000667AA0EE067A37EE870A30EE000A08BDF8
:1007700020EE007ADFED437A9FED436ADFED436AB6
:100780009FED445ADFED425AA7EE276ABDEC028B7B
:10079000E6EE076ADFED407A9FED416AE7EE057A03
:1007A000E6EE875AA7EE876A9FED3C5ADFED3D7A69
:1007B000DFED3D6AA5EE875AE6EE077AE5EE076AB9
:1007C000F7EE005AE7EE875A26EE877A9FED376AF2
:1007D000DFED377AC7EE256AB0EE467AA0EE667A8C
:1007E00030EE470A37EEC00A08BDB7EE007A30EEA9
:1007F000070AF6EE007A60EE277ADFED226A9FEDB7
:10080000226ADFED224ADFED235A9FED215A9FED48
:10081000268AA7EEA66ADFED206AE6EE274AE7EE13
:10082000A56ADFED1F5A9FED1D6AA4EEA75AE6EEFA
:10083000A75ADFED1C6AA5EE276AE5EEA76AA6EEC9
:10084000278AA6EEA77A28EE278AF0EE478AB0EE2E
:10085000670A01F0A3F888EE286A9FED167ADFEDAB
:10086000167AA0EE067AF0EE006A37EE007AE7EE2E
:10087000667AB0EE670A19E7DB0FC93FDB0F494024
:100880000000000008EF1138047F4F3A461124BDE4
:10089000A80A4E3E2EC69D3D613330BF90B0A6BE25
:1008A0002D57014039D119C0ABAA2A3E6821A23385
:1008B000DA0FC93F6821A2B3DA0F494008B52DED20
:1008C000028BB0EE408A01F069F8B4EE488AF1EE8E
:1008D00010FA06D6DFED098AB4EEE88AF1EE10FAD6
:1008E00002D4BDEC028B08BD0DF012EB88EEA80A15
:1008F000BDEC028B2123036008BD00BF0000000097
:1009000038B52DED028B55EC104B00F02FF8224638
:100910002B4620462946B0EE408AF0EE608A01F070
:1009200053FD30B9002200232046294601F024FD62
:1009300030B9B0EE480AF0EE680ABDEC028B38BD63
:100940000DF0E6EA0022002321210160104619463D
:1009500001F0CAFB41EC180BB0EE480AF0EE680A51
:10096000BDEC028B38BD00BF00F0DCBA2DE9F047CA
:10097000754955EC104BA94300F0A980002D2A467B
:10098000234655DD2C1562D0C2F31302E107A4F211
:10099000FF3742F4801203D4D90F01EB42025B000F
:1009A0005200002602EBD3727F105B001624B4467F
:1009B0004FF400110CEB010090424FEAD3754FEA5F
:1009C000430303DC00EB010C121A0E44013C05EB5F
:1009D00042024FEA5101EDD1A04620254FF00040E0
:1009E0000AE043D0510001EBD371013D0A464FEAC2
:1009F00043034FEA500045D0944508EB000EF0DA6F
:100A0000BEF1000F0EEB00080CDBE146A2EB0C017F
:100A10009E4588BF01F1FF314900CC46A3EB0E0390
:100A20000444E0E7B8F1000FEFDB0CF10109EDE75A
:100A300025F00041214344D0002D6FD1D90A153A49
:100A40005B050029FAD0CE02144674D40A46002170
:100A50005200D502084601F10101F9D5C1F1200586
:100A600023FA05F52A438B40241A8DE79E4502D9C7
:100A70004FEA4C01B7E7BEF1000F0EEB000822DB96
:100A80000021CBE7194310D0DFF8C0A0DAE900015C
:100A9000DAE9022301F046F8DAE9008902460B465A
:100AA0004046494601F072FCF8B96508711001F141
:100AB0007F5101F5001101EB075345EAC67243EC83
:100AC000102BBDE8F087B8F1000FAEDAD8E7224668
:100AD0002B462046294601F0DDF922462B4601F03F
:100AE00023F841EC100BBDE8F087B4F1FF3FDAE9E1
:100AF0000001DAE9022322D001F016F8DAE90089D0
:100B000002460B464046494601F036FCC8B1A31CDC
:100B100004F1020508BF01366D08C7E722462B46DF
:100B20002046294600F0FEFF02460B4601F0DCFAA3
:100B300041EC100BC5E74FF0FF300A4694E7013651
:100B4000B4E70134B1E700BF0000F07F40DF0008E8
:100B50009FED010A704700BF0000C07F10EE103A01
:100B600023F00043B3F1485F2CD2FDEEC07A17EEBC
:100B7000903A002B60D060EE007A9FED317A9FEDC5
:100B8000315ADFED315A9FED316ADFED316AA7EE60
:100B9000875A9FED307AE7EE855AA7EEA56AA7EE51
:100BA000867AE7EE876A67EEA66A60EEC00AB6EE5E
:100BB000007AE7EEA60AB7EE000AD7EE870A30EE13
:100BC000600A704760EE007A9FED1D7A9FED1D5A16
:100BD000DFED1D5A9FED1D6ADFED1D6A1E4AA7EE6F
:100BE000875A93429FED1B7AE5EE275AA5EEA76A36
:100BF000A6EE277AE7EE276A66EEA76AD5D9174AE6
:100C0000934214D803F17F4307EE103AB7EE006A1F
:100C100036EE476A60EEC00AF6EE005A97EEA57A05
:100C2000E7EEA60A37EE607A36EE470A7047B6EE70
:100C3000076AB5EE027AEDE7B7EE000A704700BF2B
:100C40004ED747ADF6740F317CF293B4010DD03717
:100C5000ABAA2A3D610BB6BA9999993E0000483F6C
:100C600010EE103A194923F000428A421BD9B2F122
:100C7000FF4F02D330EE400A704700B583B068469C
:100C800000F03EFA00F003000128DDED010A9DEDC1
:100C9000000A13D002280BD098B9012000F0E8F91F
:100CA00003B05DF804FBDFED0A0A002000F0E0B9B4
:100CB000012000F0DDF9B1EE400AF1E7FFF74EFF49
:100CC000EEE7FFF74BFFB1EE400AE9E7D80F493FE7
:100CD0000000000008B52DED028BB0EE408A00F058
:100CE00025F8B4EE488AF1EE10FAF0EE408A0AD602
:100CF000B0EE480AFFF7B4FBF7EE007AB4EEE70A6D
:100D0000F1EE10FA04DCB0EE680ABDEC028B08BD0F
:100D10000DF0FEE8BDEC028B034621221A6002486A
:100D2000BDE80840FFF714BF90E5000838B510EEA5
:100D3000105A25F00044B4F17E5F2DED048BF0EEE7
:100D4000407A7FD077D8B4F17C5F0ED2B4F1485F9F
:100D500080F092809FED637A30EE077AF7EE006ABA
:100D6000B4EEE67AF1EE10FA62DCB0EE670AFFF755
:100D700077FBF7EE007A37EEC08AB6EE007A28EEFF
:100D8000078ADFED596A9FED597A9FED596A9FED09
:100D9000595ADFED595ADFED598AE8EE076A9FED9F
:100DA000587AA8EE067A9FED576AA6EE885AA7EE03
:100DB000086A9FED557ADFED556AE5EE085AA6EE12
:100DC000087AE5EE886AE7EE087AE6EE888AB0EE01
:100DD000480AB0EE679A00F0E1FD4D4B9C4268EE88
:100DE000888A3AD810EE103A6FF30B0306EE903A69
:100DF000A6EEE68A70EE267A88EE895AC8EE274A71
:100E00009FED447ADFED447AB0EE006AA4EEC67A34
:100E100030EE000AF0EE675A90EE057AE6EEC65A1A
:100E200037EE657A37EEC70A002D01DCB1EE400AD5
:100E3000BDEC048B38BDBDEC048B70EE407A87EEC0
:100E4000A70A38BDBDEC048B9FED320A9FED337AC3
:100E500027EE800AA7EE870A38BD88EE896A9FEDE3
:100E6000307ADFED2E7AA0EE060AF0EE006AA0EEF0
:100E7000267A37EEC70AD7E720EE007ADFED1B6A45
:100E80009FED196ADFED1B5A9FED195ADFED1A4AE3
:100E9000A7EE266ABDEC048BE6EE075ADFED186A72
:100EA0009FED186AE7EE056AE5EE874AA6EE876AC7
:100EB0009FED165ADFED145ADFED106AA4EE875A43
:100EC000E6EE075AE5EE076AB7EE006AA5EE876A16
:100ED00026EE877AC7EE066AE0EE267AB0EE670A5B
:100EE00038BD00BFCAF24971047F4F3A08EF11388C
:100EF0002EC69D3D461124BDA80A4E3EABAA2A3EF1
:100F0000613330BF2D57014039D119C090B0A6BE12
:100F10009999793F2EBD3BB3DB0F493FDB0FC93FAA
:100F20002EBD3B3310B582B0CDED010A019B23F0FD
:100F30000042B2F1FF4FF0EE407A30D810EE100AC6
:100F400020F00041B1F1FF4F29D8B3F17E5F42D0CC
:100F50009C1704F0020444EAD07431B37AB3B2F1BE
:100F6000FF4F40D0B1F1FF4F29D0891AB1F1F45FA2
:100F70004FEAE15234DA002B42DA3C3240DA9FED9C
:100F8000340A012C4ED0022C43D064B19FED317A4B
:100F9000DFED317A30EE070A30EE670A03E09DEDAF
:100FA000017A37EE270A02B010BD022C10D09FED57
:100FB0002B7A032C08BFB0EE470A02B010BD9FED9C
:100FC000280ADFED287A0028A8BFB0EE670AEAE712
:100FD0009FED210AE7E702B0BDE81040FFF74CB9EA
:100FE0009FED200ACDE7B1F1FF4F04F1FF3420D08F
:100FF000022C26D81C4B03EB840393ED030AD2E7A3
:101000009DED017A87EE870AFFF72AFAFFF734F998
:10101000B7E79FED107ADFED107A30EE070A37EE72
:10102000C00AC0E710EE103A03F1004300EE103A98
:10103000B9E7022C08D80C4B03EB840393ED000AAC
:10104000B1E79FED030AAEE79FED080AABE700BFEB
:10105000000000002EBDBB33DB0F4940DB0F49C051
:10106000DB0FC9BFDB0FC93F50DF0008DB0F493F73
:1010700010EE103A23F00043B3F1485F04D2FDEEC6
:10108000C07A17EE903A5BB360EE007A9FED157A66
:10109000DFED155A9FED156ADFED156AE7EE875A09
:1010A0009FED147AA5EEA76A20EE275AE6EE276A8E
:1010B000A6EEA77A30B9DFED106AE7EE876AA6EEF2
:1010C000850A704727EE457AF6EE006AA0EEA67A0A
:1010D000DFED0A6AD7EE270AE5EE260A30EE600A4F
:1010E000704700BFD3C92E2F342FD7B21BEF38362D
:1010F000010D50B98988083CABAA2ABEABAA2A3E8A
:1011000070B510EE103A884A23F00044944286B03D
:10111000054671D9854A94421E4624D823F00042E0
:10112000002BDFED837A834922F00F02B0EE407A84
:1011300040F3E0808A4270EE677A09BF9FED7E7AC5
:10114000DFED7E6ADFED7E6A77EEC77A37EEE67A0C
:1011500077EEC77A80ED007A77EEE67AC0ED017A15
:10116000012006B070BD774A944252D9B4F1FF4FC6
:1011700048D2E215863AA4EBC25307EE903ABDEE90
:10118000E77ADFED716AB8EEC77A77EEC77A8DED50
:10119000037A67EEA67ABDEEE77AB8EEC77A77EE05
:1011A000C77A8DED047A67EEA67AF5EE407AF1EE15
:1011B00010FACDED057A40F09880B5EE407AF1EE68
:1011C00010FA0CBF01230223604901910221009112
:1011D00003A8294600F0C4F8002EC2DA95ED007A83
:1011E000D5ED017AB1EE477AF1EE677A85ED007AB6
:1011F000C5ED017A4042B4E7002285ED000A426065
:101200000020AEE770EE407AC0ED017AC0ED007AC2
:10121000F6E7FFF725F99FED4E7A9FED456AF6EE6A
:10122000007AE0EE077A9FED457AFDEEE77A17EE59
:10123000900AF8EEE76A1F28A6EEC60A66EE877ADD
:10124000B1EE666A20DC434A411E26F0004352F8A4
:10125000212023F0FF03934216D030EE677A30EE60
:10126000470A002E30EE670A85ED007A85ED010A07
:10127000BFF677AFB1EE477AB1EE400A85ED007A5E
:1012800085ED010A40426CE730EE677AE21517EE11
:10129000103AC3F3C753C3EBD453082BDFDD9FEDE4
:1012A000267A9FED275AF0EE405AE6EE075A70EE86
:1012B000657AE6EE077AD6EE857A35EEE77A17EEAE
:1012C000103AC3F3C753D21A192A10DD9FED227AC0
:1012D0009FED225AB0EE650AA6EE070A75EEC07AB7
:1012E000E6EE077AD6EE857AB7E703236CE7B0EE31
:1012F000650AB4E78A4270EE277A09BF9FED0E7A3D
:10130000DFED0E6ADFED0E6A77EE877A37EEA67AAA
:1013100077EEC77A80ED007A77EEA67AC0ED017A93
:101320004FF0FF301DE700BFD80F493FE3CB164019
:10133000800FC93FD00FC93F00443537434435378C
:1013400008A3852E800F494300008043E8DF000892
:1013500084F9223F68DF000800A3852E32318D24F6
:101360002DE9F04F2DED048BDBB01C469446039322
:101370000A46CD4B68991CF1040F53F82160824650
:1013800004F1FF38C0F24982BCF1030348BF0CF1FD
:101390000403DB10029301334FEAC30EACEB0E03E0
:1013A0000593029B16EB0800A3EB080316D401304B
:1013B0009FEDBE7A699C18441EA9002BA4BF54F867
:1013C000235007EE905A03F10103ACBFF8EEE77A21
:1013D000F0EE477A8342E1EC017AEED1002EC0F2C2
:1013E000B182039B1EA901EB830446AD4FEA83093A
:1013F0004046F7180AEB8301B8F1000FDFEDAB7A36
:1014000009DBA3465346F3EC016A3BED017A8B42BC
:10141000E6EE877AF7D10130B842E5EC017A04F1C3
:101420000404E9D10DF1280B0BEB8603CDE9062E60
:10143000043B9FEDA09ADFED9E8A059804930AEB8A
:10144000090446AF0BEB86090096CDF820C05AABD5
:1014500003EB8603002E13ED140A4FEA860515DD13
:101460007B195A4660EE097AB0EE407AFDEEE77AD3
:1014700073ED016AF8EEE77ABB42A7EEE87A37EE41
:10148000A60ABDEEC77AA2EC017AEBD1019000F07A
:1014900089FAF4EE007AB0EE408A20EE270A00F0D6
:1014A000F3FAF2EE007AA0EE678A01980028FDEECA
:1014B000C89AF8EEE97A38EE678A6CDD06F1FF3EED
:1014C000C0F108035BF82E2042FA03FC0CFA03F388
:1014D000D21AC0F1070119EE903A4BF82E200A41BA
:1014E0006344002A09EE903A00F3F080B5EE408A9A
:1014F000F1EE10FA40F09D80009B9E420ADD5D44B3
:10150000002355F8041D4D4543EA0103F9D1002B92
:1015100040F0F280009B013B5BF82330002B40F051
:10152000E780049B012153F8042D0131002AFAD0F1
:10153000731C31449C46029D039A05EB030E0EF189
:10154000804E699D32440EF1FF3E07EB83061EABD1
:1015500005EB8E0E03EB8205DEED017AF8EEE77AFD
:10156000B8F1000F0EF1040EE5EC017ADFED4F7AD1
:1015700009DB2A465346F3EC016A32ED017AA342B5
:10158000E6EE877AF7D10CF1010C6145E6EC017AC1
:10159000E2DA0E465BE740F08F80731E5BF8232093
:1015A000D211002AA2DD19EE903A002E03F10103B8
:1015B00009EE903A40F3D48159464FF0000E51F8AD
:1015C000043B002B6AD0C3F5807341F8043C04E06F
:1015D0000B68C3F1FF0341F8043B0EF1010E7645A1
:1015E000F6DC01239E4600280ADD012878D0022877
:1015F00006D1711E5BF8213003F03F0C4BF821C07F
:10160000022A7FF473AFB7EE000A734630EE488AC1
:10161000002B3FF46BAF0992019000F0C3F938EE54
:10162000408A0198099AB5EE408AF1EE10FA3FF42B
:1016300063AF9246DDE9062EDDF820C00196AEEBE1
:101640000C00B0EE480A009E009200F0ABF9DFED0E
:10165000186AB4EEE60AF1EE10FADDE90023F0EEC6
:10166000407AC0F250819FED137A059920EE077AF7
:101670000831BDEEC77A0591B8EEC77A5C1CE7EE7B
:10168000667ABDEEC77AFDEEE77A17EE901A4BF850
:10169000231017EE103A4BF8243046E00EF1010EFD
:1016A000B6458CDB9E469EE700E300080000000084
:1016B000000080430000803BF6EE007AB4EEE78A3B
:1016C000F1EE10FA80F2988000220FE70133002E2D
:1016D00009EE903A3FF770AF002301289E4686D16D
:1016E000711E5BF8213003F07F0C4BF821C087E7B7
:1016F000731C9C4619461EE733469246DDE90512E7
:101700005C1EA1F108005BF82410009E059061B9F1
:1017100003F18043013B0BEB8303014653F8040DB7
:10172000013C08390028F9D0059105980092B7EEE0
:10173000000A00F037F9002C009AB0EE407AC0F2AF
:101740000581601C46AD5FED256A81000BEB8003CF
:1017500005EB800073ED017AF8EEE77A5B4567EE02
:10176000877A27EE267A60ED017AF3D10DF1C80869
:101770000B1F46A8C718C646A44600259146002E52
:1017800073DB844ADFED847A3846002301E0AB4204
:1017900008DCF2EC016AB0EC017A01339E42E6EE1D
:1017A000877AF4DA0CF1FF3CBCF1FF3FEEEC017AF2
:1017B00005F10105A7F10407E1D1689B022B4A4618
:1017C00056DC002B2EDC0ED1DFED737A414431ED77
:1017D000017A414577EE877AF9D15346002B40F0E4
:1017E000AE80C2ED007A19EE903A03F007005BB0CC
:1017F000BDEC048BBDE8F08F19EE903A002E03F19A
:10180000010309EE903AC8BF02223FF7D5AEF7EECA
:10181000007A37EEC88A022268E600234FF0080EED
:101820000293BBE59FED5C7A414471ED017A41453D
:1018300037EE277AF9D1DDED327A534677EEC77A63
:10184000002B75D182ED007A64B133A90123B1EC8C
:10185000017A01339C4277EE877AF8DA53460BB16E
:10186000F1EE677AC2ED017ABDE7DFED4B7A99E7D9
:10187000689B032BB7D1002C7ED008EB840595ED37
:10188000007AA0002B46294671ED017AF0EE476AF6
:1018900037EE277A414577EEC77A81ED007A77EE09
:1018A000A67AC1ED017AEFD1012C65D095ED007AD1
:1018B00008F1040173ED017AF0EE476A37EE277AFA
:1018C000994277EEC77A83ED007A77EEA67AC3ED78
:1018D000017AEFD1031DDFED307A434408F10808A7
:1018E00033ED017A984577EE877AF9D15346DDEDED
:1018F000326A9DED337A73B9C2ED006A82ED017AE6
:10190000C2ED027A6FE7FDEEC07A1C4617EE901A20
:101910004BF8231009E7F1EE666AB1EE477AF1EE73
:10192000677AC2ED006A82ED017AC2ED027A5AE767
:10193000B1EE477A82ED007A002C86D190E7F1EE85
:10194000677A4EE7039B4FEA83096BE5689B022B9E
:101950000EDC002B13DC7FF446AFDFED0F7A3CE7A3
:10196000022A7FF4C3ADF7EE007A37EEC88ABDE5F0
:10197000689B032B7FF437AFDFED077AB6E753465A
:10198000DDED327A13B9002313606BE74FF00043AB
:10199000136065E70CE3000800000000B1EEC00A28
:1019A000704700BF10EE103A33F000411A4627D0BE
:1019B000B1F1FF4F21D213F0FF4F22D1DFED2B7A8F
:1019C0002B4A60EE277A904217EE903A33DB4CF2C6
:1019D000503CC3F3C75160451A46A1F1190116DD09
:1019E000DFED247ADFED246A002BB0EE677AB8BF12
:1019F000F0EE667A27EE870A704730EE000A7047ED
:101A000070474CF2503C60454FEAD151E8DC01444C
:101A1000FE29E5DC002915DC11F1160F19DB19315F
:101A200022F0FF4242EAC15207EE902A9FED130ACC
:101A300027EE800A7047DFED127A07EE103A27EEA4
:101A4000270A704722F0FF4242EAC15300EE103AE3
:101A50007047DFED0B7ADFED0B6A002BB0EE677A93
:101A6000B8BFF0EE667A27EE870A70470000004C98
:101A7000B03CFFFFCAF24971CAF249F100000033DD
:101A80006042A20D6042A28D10EE102AC2F3C7532D
:101A90007F3B162B22F0004129DC002B104618DB7F
:101AA0001A4919410A4221D0DFED197A70EE277ADE
:101AB000F5EEC07AF1EE10FA18DD002A04DA4FF4E0
:101AC000000242FA03F3184420EA010300EE103A40
:101AD0007047DFED0F7A70EE277AF5EEC07AF1EEFF
:101AE00010FA03DD002A08DB9FED0A0A7047B1F106
:101AF000FF4FFBD330EE000A7047DFED077A002975
:101B0000BFEE000A08BFB0EE670A7047FFFF7F0014
:101B1000CAF24971000000000000008081F000411D
:101B200002E000BF83F0004330B54FEA41044FEAC2
:101B3000430594EA050F08BF90EA020F1FBF54EA5D
:101B4000000C55EA020C7FEA645C7FEA655C00F0F9
:101B5000E2804FEA5454D4EB5555B8BF6D420CDDCA
:101B60002C4480EA020281EA030382EA000083EA4D
:101B7000010180EA020281EA0303362D88BF30BDED
:101B800011F0004F4FEA01314FF4801C4CEA113143
:101B900002D0404261EB410113F0004F4FEA0333A2
:101BA0004CEA133302D0524263EB430394EA050F2D
:101BB00000F0A780A4F10104D5F1200E0DDB02FA9C
:101BC0000EFC22FA05F2801841F1000103FA0EF230
:101BD000801843FA05F359410EE0A5F120050EF1F6
:101BE000200E012A03FA0EFC28BF4CF0020C43FA27
:101BF00005F3C01851EBE37101F0004507D54FF034
:101C0000000EDCF1000C7EEB00006EEB0101B1F583
:101C1000801F1BD3B1F5001F0CD349085FEA3000C9
:101C20004FEA3C0C04F101044FEA445212F5800FD4
:101C300080F09A80BCF1004F08BF5FEA500C50F171
:101C4000000041EB045141EA050130BD5FEA4C0C54
:101C5000404141EB0101013C28BFB1F5801FE9D2B1
:101C600091F0000F04BF01460020B1FA81F308BFD4
:101C70002033A3F10B03B3F120020CDA0C3208DDA0
:101C800002F1140CC2F10C0201FA0CF021FA02F17B
:101C90000CE002F11402D8BFC2F1200C01FA02F1EB
:101CA00020FA0CFCDCBF41EA0C019040E41AA2BF10
:101CB00001EB0451294330BD6FEA04041F3C1CDAD8
:101CC0000C340EDC04F11404C4F1200220FA04F0F8
:101CD00001FA02F340EA030021FA04F345EA0301A2
:101CE00030BDC4F10C04C4F1200220FA02F001FA64
:101CF00004F340EA0300294630BD21FA04F02946E6
:101D000030BD94F0000F83F4801306BF81F480117E
:101D10000134013D4EE77FEA645C18BF7FEA655CF1
:101D200029D094EA050F08BF90EA020F05D054EAC3
:101D3000000C04BF1946104630BD91EA030F1EBFC8
:101D40000021002030BD5FEA545C05D140004941CC
:101D500028BF41F0004130BD14F580043CBF01F5BF
:101D6000801130BD01F0004545F0FE4141F47001A5
:101D70004FF0000030BD7FEA645C1ABF1946104680
:101D80007FEA655C1CBF0B46024650EA013406BF81
:101D900052EA033591EA030F41F4002130BD00BF40
:101DA00090F0000F04BF0021704730B54FF48064FD
:101DB00004F132044FF000054FF0000150E700BF7E
:101DC00090F0000F04BF0021704730B54FF48064DD
:101DD00004F1320410F0004548BF40424FF00001CA
:101DE0003EE700BF42004FEAE2014FEA31014FEA0D
:101DF00002701FBF12F07F4393F07F4F81F060515C
:101E0000704732F07F4208BF704793F07F4F04BFA6
:101E100041F40021704730B54FF4607401F0004583
:101E200021F000411CE700BF50EA010208BF7047E3
:101E300030B54FF000050AE050EA010208BF7047D4
:101E400030B511F0004502D5404261EB41014FF43D
:101E5000806404F132045FEA915C3FF4D8AE4FF045
:101E600003025FEADC0C18BF03325FEADC0C18BF28
:101E7000033202EBDC02C2F1200300FA03FC20FA79
:101E800002F001FA03FE40EA0E0021FA02F11444C6
:101E9000BDE600BF70B54FF0FF0C4CF4E06C1CEADF
:101EA00011541DBF1CEA135594EA0C0F95EA0C0F50
:101EB00000F0DEF82C4481EA030621EA4C5123EAC3
:101EC0004C5350EA013518BF52EA033541F48011F2
:101ED00043F4801338D0A0FB02CE4FF00005E1FBA5
:101EE00002E506F00042E0FB03E54FF00006E1FBEF
:101EF00003569CF0000F18BF4EF0010EA4F1FF0432
:101F0000B6F5007F64F5407404D25FEA4E0E6D4171
:101F100046EB060642EAC62141EA55514FEAC52082
:101F200040EA5E504FEACE2EB4F1FD0C88BFBCF5FE
:101F3000E06F1ED8BEF1004F08BF5FEA500E50F1AF
:101F4000000041EB045170BD06F0004646EA010175
:101F500040EA020081EA0301B4EB5C04C2BFD4EBA7
:101F60000C0541EA045170BD41F480114FF0000EA0
:101F7000013C00F3AB8014F1360FDEBF002001F00E
:101F8000004170BDC4F10004203C35DA0C341BDC88
:101F900004F11404C4F1200500FA05F320FA04F05A
:101FA00001FA05F240EA020001F0004221F000418E
:101FB00010EBD37021FA04F642EB06015EEA430E01
:101FC00008BF20EAD37070BDC4F10C04C4F1200531
:101FD00000FA04F320FA05F001FA04F240EA0200E4
:101FE00001F0004110EBD37041F100015EEA430EB5
:101FF00008BF20EAD37070BDC4F1200500FA05F2D5
:102000004EEA020E20FA04F301FA05F243EA020353
:1020100021FA04F001F0004121FA04F220EA020062
:1020200000EBD3705EEA430E08BF20EAD37070BDA8
:1020300094F0000F0FD101F00046400041EB010188
:1020400011F4801F08BF013CF7D041EA060195F06A
:10205000000F18BF704703F00046520043EB030324
:1020600013F4801F08BF013DF7D043EA0603704711
:1020700094EA0C0F0CEA135518BF95EA0C0F0CD01C
:1020800050EA410618BF52EA4306D1D181EA030162
:1020900001F000414FF0000070BD50EA410606BF5C
:1020A0001046194652EA430619D094EA0C0F02D1A1
:1020B00050EA013613D195EA0C0F05D152EA0336E6
:1020C0001CBF104619460AD181EA030101F0004104
:1020D00041F0FE4141F470014FF0000070BD41F04D
:1020E000FE4141F4780170BD70B54FF0FF0C4CF427
:1020F000E06C1CEA11541DBF1CEA135594EA0C0F46
:1021000095EA0C0F00F0A7F8A4EB050481EA030E92
:1021100052EA03354FEA013100F088804FEA033379
:102120004FF0805545EA131343EA12634FEA022247
:1021300045EA111545EA10654FEA00260EF0004108
:102140009D4208BF964244F1FD0404F5407402D25A
:102150005B084FEA3202B61A65EB03055B084FEAEB
:1021600032024FF480104FF4002CB6EB020E75EBE8
:10217000030E22BFB61A754640EA0C005B084FEA10
:102180003202B6EB020E75EB030E22BFB61A75468D
:1021900040EA5C005B084FEA3202B6EB020E75EBD8
:1021A000030E22BFB61A754640EA9C005B084FEA50
:1021B0003202B6EB020E75EB030E22BFB61A75465D
:1021C00040EADC0055EA060E18D04FEA051545EA4C
:1021D00016754FEA06164FEAC30343EA52734FEAF5
:1021E000C2025FEA1C1CC0D111F4801F0BD141EA6E
:1021F00000014FF000004FF0004CB6E711F4801FD3
:1022000004BF01430020B4F1FD0C88BFBCF5E06FB2
:102210003FF6AFAEB5EB030C04BFB6EB020C5FEAC2
:10222000500C50F1000041EB045170BD0EF0004E17
:102230004EEA113114EB5C04C2BFD4EB0C0541EA49
:10224000045170BD41F480114FF0000E013C90E646
:1022500045EA060E8DE60CEA135594EA0C0F08BF0A
:1022600095EA0C0F3FF43BAF94EA0C0F0AD150EA09
:1022700001347FF434AF95EA0C0F7FF425AF10469C
:1022800019462CE795EA0C0F06D152EA03353FF4C4
:10229000FDAE1046194622E750EA410618BF52EA41
:1022A00043067FF4C5AE50EA41047FF40DAF52EA15
:1022B00043057FF4EBAE12E74FF0FF3C06E000BFB2
:1022C0004FF0010C02E000BF4FF0010C4DF804CDBF
:1022D0004FEA410C7FEA6C5C4FEA430C18BF7FEA7F
:1022E0006C5C1BD001B050EA410C0CBF52EA430CAD
:1022F00091EA030F02BF90EA020F0020704710F12D
:10230000000F91EA030F58BF994208BF90422CBFBB
:10231000D8176FEAE37040F0010070474FEA410CB4
:102320007FEA6C5C02D150EA013C07D14FEA430CD2
:102330007FEA6C5CD6D152EA033CD3D05DF8040B43
:10234000704700BF8446104662468C461946634675
:1023500000E000BF01B5FFF7B7FF002848BF10F14C
:10236000000F01BD4DF808EDFFF7F4FF0CBF012091
:1023700000205DF808FB00BF4DF808EDFFF7EAFF0D
:1023800034BF012000205DF808FB00BF4DF808EDC8
:10239000FFF7E0FF94BF012000205DF808FB00BFBD
:1023A0004DF808EDFFF7CEFF94BF012000205DF847
:1023B00008FB00BF4DF808EDFFF7C4FF34BF012054
:1023C00000205DF808FB00BF4FEA410C7FEA6C5C1F
:1023D00002D150EA013C0AD14FEA430C7FEA6C5C1F
:1023E00002D152EA033C02D14FF0000070474FF097
:1023F000010070474FEA410212F5001215D211D5C3
:102400006FF47873B3EB625212D94FEAC12343F0F1
:10241000004343EA505311F0004F23FA02F018BF73
:10242000404270474FF00000704750EA013005D13C
:1024300011F0004008BF6FF0004070474FF00000FF
:10244000704700BF4A0011D212F5001211D20DD50B
:102450006FF47873B3EB62520ED44FEAC12343F0AA
:10246000004343EA505323FA02F070474FF0000054
:10247000704750EA013002D14FF0FF3070474FF003
:10248000000070474FEA4102B2F1E04324BFB3F5C8
:10249000001CDCF1FE5C0DD901F0004C4FEAC002DB
:1024A0004CEA5070B2F1004F40EB830008BF20F0BF
:1024B0000100704711F0804F21D113F13872BCBF79
:1024C00001F00040704741F480114FEA5252C2F1CE
:1024D0001802C2F1200C10FA0CF320FA02F018BF17
:1024E00040F001004FEAC1234FEAD32303FA0CFC6A
:1024F00040EA0C0023FA02F34FEA4303CCE77FEAF9
:10250000625307D150EA01331EBF4FF0FE4040F442
:102510004000704701F0004040F0FE4040F40000F1
:10252000704700BF53B94AB9002908BF00281CBF33
:102530004FF0FF314FF0FF3000F088B9ADF1080CDB
:102540006DE904CE00F006F8DDF804E0DDE90223D1
:1025500004B070472DE9F047089D0F4604468C46AD
:10256000002B48D18A42164661D9B2FA82F34BB1A8
:10257000C3F1200201FA03FC20FA02F29E4042EA73
:102580000C0C9C404FEA164EB7B2BCFBFEF1220C7D
:102590000EFB11CC42EA0C4201FB07F0904209D934
:1025A000B21801F1FF3C80F0EE80904240F2EB80E7
:1025B00002393244121AA4B2B2FBFEF00EFB102212
:1025C00044EA024400FB07F7A74209D9341900F195
:1025D000FF3280F0DA80A74240F2D78034440238DC
:1025E00040EA0140E41B00211DB1DC400023C5E9A5
:1025F0000043BDE8F0878B4206D90DB1C5E9000163
:1026000000210846BDE8F087B3FA83F1002948D1DC
:10261000BB4202D3824200F20781841A67EB0302B5
:1026200001209446002DE4D0C5E9004CE1E7002AE2
:1026300000F09280B2FA82F3002B40F0A8808A1A50
:102640004FEA164E1FFA86FC0121200CB2FBFEF762
:102650000EFB172240EA02420CFB07F0904207D91A
:10266000B21807F1FF3802D2904200F2E2804746EA
:10267000121AA4B2B2FBFEF00EFB102244EA02448E
:102680000CFB00FCA44507D9341900F1FF3202D23B
:10269000A44500F2CB801046A4EB0C0440EA0740AE
:1026A000A2E7C1F120068B4022FA06FC4CEA030C9B
:1026B00007FA01F420FA06F3F7404FEA1C492343D6
:1026C00000FA01F81FFA8CFEB7FBF9F01C0C09FBAD
:1026D000107744EA074400FB0EF7A74202FA01F222
:1026E0000AD91CEB040400F1FF3A80F09B80A7425A
:1026F00040F2988002386444E41B9FB2B4FBF9F3C3
:1027000009FB134447EA044403FB0EFEA64509D91E
:102710001CEB040403F1FF3780F08280A6457FD9CB
:10272000023B644443EA0040A4EB0E04A0FB02E732
:10273000BC427346B94663D360D05DB1B8EB0302C7
:1027400064EB090404FA06F622FA01F31E43CC40B6
:10275000C5E9006400214CE76208480842EAC171FB
:102760000B0C43EA00438AB242EA0342B3FBF6F1A0
:10277000E407B4463746B6461F23B0FBF6F0D21B3B
:1027800041EA004161E7614614E7104628E7C3F1DA
:10279000200120FA01F29E4027FA01F19F403A43BE
:1027A0004FEA164E1FFA86FCB1FBFEF70EFB171020
:1027B000110C41EA004107FB0CF8884504FA03F4C8
:1027C0003AD9711807F1FF3001D288451FD8A1EB23
:1027D0000801B1FBFEF808FB0CF70EFB181192B2D2
:1027E00042EA0142BA422FD2B21808F1FF31C6D2F2
:1027F000BA42C4D2A8F102013244C0E7F0459CD2EB
:10280000BEEB020367EB0C070138B94695E7A6EB70
:1028100008084144B81EB1FBFEF808FB0CF7DCE7E2
:102820003B467FE7504667E70846FBE634440238FC
:1028300032E7023F32441BE7A1EB08013846B1FB07
:10284000FEF808FB0CF7C8E7414698E7704700BF61
:1028500000B500F00700C0F1070CBCF1040F28BF61
:102860004FF0040C031D062B0FD9C31E4FF0FF3E83
:102870000EFA0CF021EA000199400EFA03FE22EA5A
:102880000E0241EA02005DF804FB0023EEE710B4FB
:10289000C46891FAA1F3A3B1B3FA83F35B004FF0DC
:1028A000030C0CFA03F324EA030391FAA1F151B1EA
:1028B000B1FA81F149008A401343C3605DF8044BCB
:1028C00070472023EAE72021F4E710B4046891FA66
:1028D000A1F3A3B1B3FA83F35B004FF0030C0CFA3E
:1028E00003F324EA030391FAA1F151B1B1FA81F1A2
:1028F00049008A40134303605DF8044B704720236E
:10290000EAE72021F4E700002DE9F04F8FB0002323
:102910000B930C930D9305930693079308930993D8
:102920000A9303F1804303F50433DA6C42F00402A6
:10293000DA64DA6C02F004020492049ADA6C42F06F
:102940008002DA64DA6C02F080020392039ADA6C95
:1029500042F00102DA64DA6C02F001020292029A99
:10296000DA6C42F00202DA64DA6C02F002020192DE
:10297000019ADA6C42F00802DA64DB6C03F00803B7
:102980000093009BF0234FF09042936202F50062A7
:102990004FF400719162A2F580624FF4C0519161D1
:1029A0009D4A526922F0F00293FAA3F3002B00F043
:1029B0002B81B3FA83F3022101FA03F31343964AFE
:1029C0005361926822F00F020F2393FAA3F3002BB6
:1029D00000F01C81B3FA83F3012101FA03F31343DE
:1029E0008D4A9360926822F0F002F02393FAA3F3E9
:1029F000002B00F00D81B3FA83F3012101FA03F3F8
:102A00001343854A9360926822F470624FF47063B6
:102A100093FAA3F3002B00F0FD80B3FA83F30125B2
:102A200005FA03F313437C4A93604FF40059CDF841
:102A30002C908DF8345000248DF835404FF002086A
:102A40008DF836800BAE304600F052FE0B950C949C
:102A50008DF834508DF835408DF83650304600F002
:102A600047FECDF82C800C948DF834508DF835400D
:102A70008DF83650304600F03BFE4FF0040ACDF89A
:102A80002CA00C948DF834508DF835408DF83650CC
:102A9000304600F02DFEDFF898B1224649465846F0
:102AA000FFF7F5FE5D4F224629463846FFF7EFFE59
:102AB000224641463846FFF7EAFE2246514638464E
:102AC000FFF7E5FE224649465846FFF7FEFE22463E
:102AD00029463846FFF7F9FE224641463846FFF7B9
:102AE000F4FE224651463846FFF7EFFE41F28F13BF
:102AF00005934FF00309CDF81890099405AE3146BF
:102B0000584601F0FFF9F0230593069507940894C1
:102B1000099431464FF0904001F0F4F94FF4FE6310
:102B20000593CDF8189009943146384601F0EAF93A
:102B30004FF4C05305930695CDF81C800894099472
:102B40003146384601F0DEF94FF4007305930695DF
:102B5000CDF81C80089409943146584601F0D2F90A
:102B60004FF480730593CDF8188007940894099466
:102B70000A9431464FF0904001F0C4F94FF41843E5
:102B80000593CDF81890099431464FF0904001F02C
:102B9000B9F9CDF814A0CDF8189009943146204821
:102BA00001F0B0F908230593CDF818900994314647
:102BB0001C4801F0A7F91C4EF06822460521C0F31D
:102BC0000220FFF745FE00FA0AF0C0B2174D85F863
:102BD0000603F06822460521C0F30220FFF738FE05
:102BE00000FA0AF0C0B285F80703F0682246052112
:102BF000C0F30220FFF72CFE00FA0AF0C0B285F8FD
:102C000008030FB0BDE8F08F2023D4E62023E3E6CD
:102C10002023F2E6202302E70000014000040048E0
:102C2000000C0048001C004800ED00E000E100E05E
:102C30000008004800B583B0264B9A6C42F00102B0
:102C40009A649A6C02F001020092009A9A6C42F027
:102C500002029A649B6C03F002030193019B002221
:102C600005210B2003F0C8F90B2003F0D5F9002251
:102C700005210E2003F0C0F90E2003F0CDF900224B
:102C800005210F2003F0B8F90F2003F0C5F9002249
:102C90000521102003F0B0F9102003F0BDF9002247
:102CA0000521112003F0A8F9112003F0B5F9002245
:102CB0000521442003F0A0F9442003F0ADF90022DF
:102CC0000521452003F098F9452003F0A5F903B04C
:102CD0005DF804FB0010024008B5012006F062FD1B
:102CE000FBE708B50368B3F1804F00D008BD01F0E1
:102CF000DDFEFBE772B6FEE708B50B480B4B036041
:102D00004FF46133436000238360C36003610C228E
:102D100042618361C3610362436204F04AFB00B90C
:102D200008BDFFF7E7FF00BFE807002000440040B0
:102D300008B50B480B4B03604FF416434360002368
:102D40008360C36003610C2242618361C3610362DB
:102D5000436204F02EFB00B908BDFFF7CBFF00BFB4
:102D6000700800200038014000B587B000230093B0
:102D7000019302930393049305932048204A026031
:102D800043608360C36001220261082141610376D0
:102D900043760221C16180F820304FF4A061816246
:102DA0004FF48061C16280F83020436380F838308E
:102DB00001F01AF9D8B9134B0093062301930423A9
:102DC00002937F22039204930023059369460B48E4
:102DD00001F064FB68B90C4B00930C230193694626
:102DE000064801F05BFB30B907B05DF804FBFFF764
:102DF00081FFFFF77FFFFFF77DFF00BF080B00207B
:102E0000000004502000F0144000201900B589B0E3
:102E1000002304930593069307930193029303936E
:102E20001348144A02604F224260836042F20F72DC
:102E3000C2600361836100F0D1FE98B94FF4805302
:102E4000049304A90A4800F007FF68B920230193FE
:102E50000023039301A9064800F07EFF30B909B0B2
:102E60005DF804FBFFF746FFFFF744FFFFF742FF63
:102E7000800900200004004008B51048104B036092
:102E80004FF482734360002383604FF4E062C260BA
:102E9000036143614FF4007282613822C2610362B0
:102EA000436283620722C26203630823436303F021
:102EB00005FA00B908BDFFF71DFF00BF5C0A00203E
:102EC0000038004008B50B480B4B03604FF4E1336A
:102ED000436000238360C36003610C22426183610D
:102EE000C3610362436204F064FA00B908BDFFF7EE
:102EF00001FF00BFF8080020004C004008B50B4857
:102F00000B4B03604FF4E133436000238360C360E5
:102F100003610C2242618361C3610362436204F076
:102F200048FA00B908BDFFF7E5FE00BF60070020C2
:102F30000048004000B597B04422002105A806F0E3
:102F400035FF0023009301930293039304934FF4FE
:102F5000007002F0B5FF58BB022305934FF4807256
:102F60000892402209920F931093012211920A2293
:102F70001292072213921493159305A801F06AFE8A
:102F8000C0B90F23009303230193002302930393FB
:102F900004930421684602F093F968B94FF0804227
:102FA0004FF08071002001F0DBFD17B05DF804FBED
:102FB000FFF7A0FEFFF79EFEFFF79CFE08B501F0AD
:102FC0005FFDFFF7B7FFFFF79FFCFFF733FEFFF74B
:102FD00093FEFFF7ADFEFFF7C7FEFFF717FFFFF702
:102FE0004BFFFFF76FFFFFF789FF08F017FF06F0B1
:102FF00051FB054A0021054806F07AFB044B186096
:1030000006F05AFBFEE700BFD4E80008D92C000800
:103010003C060020FEE7FEE7FEE7FEE7FEE770471E
:10302000044B5B6913F0010F00D17047014B012283
:103030005A61FAE700040140044B5B6913F0020F88
:1030400000D17047014B02225A61FAE700040140A7
:10305000044B5B6913F0040F00D17047014B04224D
:103060005A61FAE70004014008B5024802F0BDFECB
:1030700008BD00BFC00A002008B5024802F0B5FE36
:1030800008BD00BF140A002008B5024802F0ADFEDA
:1030900008BD00BFCC09002008B5024802F0A5FE1B
:1030A00008BD00BF8806002008B5024802F09DFE5A
:1030B00008BD00BF4006002008B5024801F082F8B4
:1030C00008BD00BF080B002008B5024800F080FCD6
:1030D00008BD00BF700B002008B5024803F0F0FAED
:1030E00008BD00BF5C0A002008B5024803F076FC6A
:1030F00008BD00BF7008002008B5024803F06EFC50
:1031000008BD00BFE807002008B5024802F06DFEC8
:1031100008BD00BFD006002008B5024802F065FED9
:1031200008BD00BF1807002000B583B00D4B1A6E14
:1031300042F001021A661A6E02F001020092009A31
:103140009A6D42F080529A659B6D03F08053019313
:10315000019B00220F216FF0010002F04DFF03B030
:103160005DF804FB0010024030B5A3B00446002116
:103170001D911E911F9120912191682203A806F0B4
:1031800015FE2268304B9A4201D023B030BD4FF477
:10319000804303934FF080531A9302230493012238
:1031A00005920822069207220792089309934FF08E
:1031B00080730A9303A802F047FA00283DD1234BFD
:1031C000DA6C42F40052DA64DA6C02F400520192D2
:1031D000019ADA6C42F00102DA64DB6C03F001035D
:1031E0000293029B03231D930B231E9300251F951F
:1031F0001DA94FF0904002F0F3FB1548154B0360FA
:1032000045608560C560802303614FF4807343612E
:103210004FF4806383612023C361056202F0DEFC0A
:1032200070B90B4B23659C6200220521122002F02D
:10323000E3FE122002F0F0FEA7E7FFF75BFDBEE71A
:10324000FFF758FDEDE700BF0000045000100240FA
:10325000C00A00200800024010B588B00023039384
:10326000049305930693079302682F4B9A4201D06B
:1032700008B010BD044603F5EC339A6D42F4804269
:103280009A659A6D02F480420192019ADA6C42F0DA
:103290000202DA64DB6C03F002030293029B4FF438
:1032A00060430393022304930323069305230793A8
:1032B00003A91E4802F094FB1D481E4B0360012326
:1032C000436000238360C3608022026143618361A5
:1032D000C361036202F082FC00BB154BA3659C62D4
:1032E0001548164B036001234360102383600023BD
:1032F000C3608022026143618361C361036202F0A3
:103300006DFC70B90C4B63659C6200220521242082
:1033100002F072FE242002F07FFEA9E7FFF7EAFC2C
:10332000DBE7FFF7E7FCEDE700380040000400486A
:10333000140A002044000240CC090020580002403A
:1033400000B589B000230393049305930693079374
:103350000268124B9A4202D009B05DF804FB03F5F3
:1033600003339A6D42F002029A659A6D02F00202EE
:103370000192019ADA6C42F00402DA64DB6C03F029
:1033800004030293029B40230393022304930793B5
:1033900003A9034802F024FBDEE700BF000400405D
:1033A0000008004870B5A8B004460021239124917C
:1033B000259126912791682209A806F0F7FC236839
:1033C000954A93420CD0954A934235D0944A934201
:1033D00000F09580934A934200F0F38028B070BDCE
:1033E0000823099309A802F02FF910BB8E4B9A6DA0
:1033F00042F400229A659A6D02F400220192019A29
:10340000DA6C42F00402DA64DB6C03F0040302932A
:10341000029B4FF4406323930223249300232593BC
:10342000032326930823279323A9804802F0D8FA80
:10343000D4E7FFF75FFCD9E70123099309A802F05D
:1034400003F9002852D1784B1A6E42F480421A6672
:103450001A6E02F480420392039ADA6C42F001027F
:10346000DA64DB6C03F001030493049B4FF4C06344
:1034700023930226249600252595032326930723CC
:10348000279323A94FF0904002F0AAFA6848694BAD
:10349000036046608560C560802303614561856186
:1034A000C561056202F09AFB18BB614B63679C62C1
:1034B0006148624B03600223436010238360002352
:1034C000C3608022026143618361C361036202F0D1
:1034D00085FB88B9584B23679C6200220521252073
:1034E00002F08AFD252002F097FD77E7FFF702FC46
:1034F000A9E7FFF7FFFBD8E7FFF7FCFBEAE70223AA
:10350000099309A802F0A0F8002851D1464B9A6D02
:1035100042F400329A659A6D02F400320592059ADF
:10352000DA6C42F00102DA64DB6C03F0010306930B
:10353000069B0C232393022624960025259503231E
:1035400026930723279323A94FF0904002F048FACF
:103550003B483C4B036046608560C5608023036147
:1035600045618561C561056202F038FB18BB344BCB
:1035700063679C623448354B036002234360102329
:1035800083600023C3608022026143618361C36161
:10359000036202F023FB88B92B4B23679C62002255
:1035A0000521262002F028FD262002F035FD15E732
:1035B000FFF7A0FBAAE7FFF79DFBD8E7FFF79AFB11
:1035C000EAE70423099309A802F03EF808BB164B6A
:1035D0009A6D42F480229A659A6D02F480220792D5
:1035E000079ADA6C42F00402DA64DB6C03F004033D
:1035F0000893089B302323930223249300232593CD
:10360000032326930723279323A9084802F0E8F908
:10361000E4E6FFF76FFBDAE7004C004000380140BA
:1036200000440040004800400010024000080048EC
:103630001807002080040240D00600206C040240DD
:10364000880600206C0002404006002080000240F6
:1036500030B589B00446224B9A6D42F001029A655A
:103660009B6D03F001030193019B02A903A801F0E4
:1036700015FF069BD3B901F0EDFE0346194AA2FBE4
:1036800003239B0C013B18484FF08042026040F23C
:10369000E732C2604360002303618360836100F00E
:1036A0009DFA054630B1284609B030BD01F0D2FE82
:1036B0004300E3E70C4800F04DF905460028F2D13D
:1036C0001C2002F0A9FC0F2C01D90125EBE70022F8
:1036D00021461C2002F090FC044B1C60E3E700BF75
:1036E0000010024083DE1B43700B0020040000200A
:1036F0000346027A002A00F0AD8010B4006828B3B7
:103700005A7A012A4CD0022A55D0002A5DD102F102
:10371000804202F58232516821EA00015160196845
:1037200010680143116000209A7A7AB1022A4ED0C3
:10373000032A57D0012A5FD11C68534AD16821EA75
:103740000401D16019689468214391605A6822B3DA
:10375000597A012953D002295BD0002962D101F1A5
:10376000804101F582314C6A24EA02024A625A68B9
:103770000C6A22430A629A7A7AB1022A55D0032A45
:103780005ED0012A7DD15C683F4AD16A21EA0401FA
:10379000D1625B68916A0B4393625DF8044B70479A
:1037A000394A116821EA0001116019685068014323
:1037B00051600020B8E7344A11680143116019686C
:1037C0005068014351600020AEE70120ACE71C685F
:1037D0002D4A916821EA040191601968D468214357
:1037E000D160B3E71968284A946821439160196849
:1037F000D4682143D160A9E740F00200A6E722493E
:103800000C6A24EA02020A625A684C6A22434A623B
:10381000B1E71D490C6A22430A625A684C6A224386
:103820004A62A8E740F00400A5E75C68164A916A7E
:1038300021EA040191625B68D16A0B43D362ACE771
:103840005968114A946A214391625B68D16A0B43BB
:10385000D362A2E700680C4A116821EA00011160F6
:103860001868516821EA000151605868116A21EA1C
:10387000000111625968536A23EA01035362002070
:103880007047012089E700BF0004014010B4036ABB
:10389000046A24F001040462846924F0F00C4CEA08
:1038A000021223F00A030B43826103625DF8044BAA
:1038B000704710B4036A046A24F010040462846937
:1038C00024F4704C4CEA023223F0A00343EA0113C3
:1038D000826103625DF8044B7047836823F07003D4
:1038E0000B4343F0070383607047000090F83D30BE
:1038F000012B25D1022380F83D300368134A9342FF
:1039000010D0B3F1804F0DD0A2F59432934209D07C
:1039100002F59E32934205D01A6842F001021A6005
:103920000020704799680A4A0A40062A0AD0B2F570
:10393000803F09D01A6842F001021A6000207047E7
:10394000012070470020704700207047002C014084
:103950000700010090F83D30012B2AD1022380F8A6
:103960003D300268D36843F00103D3600368144A12
:10397000934210D0B3F1804F0DD0A2F59432934210
:1039800009D002F59E32934205D01A6842F0010236
:103990001A600020704799680A4A0A40062A0AD02D
:1039A000B2F5803F09D01A6842F001021A60002087
:1039B000704701207047002070470020704700BF0B
:1039C000002C0140070001007047704770477047A6
:1039D00070B504460368DE681D6915F0020F10D04B
:1039E00016F0020F0DD06FF002021A610123037767
:1039F00003689B6913F0030F64D0FFF7E6FF002311
:103A0000237715F0040F12D016F0040F0FD023689F
:103A10006FF004021A610223237723689B6913F471
:103A2000407F55D02046FFF7D0FF0023237715F0C5
:103A3000080F12D016F0080F0FD023686FF008029D
:103A40001A61042323772368DB6913F0030F46D040
:103A50002046FFF7BAFF0023237715F0100F12D08E
:103A600016F0100F0FD023686FF010021A610823B0
:103A700023772368DB6913F4407F37D02046FFF7B4
:103A8000A4FF0023237715F0010F02D016F0010FD9
:103A900033D115F4025F02D016F0800F35D115F442
:103AA000807F02D016F0800F37D115F0400F02D082
:103AB00016F0400F39D115F0200F02D016F0200F6C
:103AC0003BD170BDFFF780FF2046FFF77FFF96E7F1
:103AD0002046FFF779FF2046FFF778FFA5E720464D
:103AE000FFF772FF2046FFF771FFB4E72046FFF7AC
:103AF0006BFF2046FFF76AFFC3E723686FF0010200
:103B00001A612046FFF7EDF8C3E723686FF402520D
:103B10001A61204600F05DF9C1E723686FF48072F6
:103B20001A61204600F056F9BFE723686FF04002A3
:103B30001A612046FFF74BFFBDE723686FF02002B4
:103B40001A61204600F044F9BBE700000368224AEE
:103B5000904206D0B0F1804F03D0A2F5943290424B
:103B600003D123F070034A6813431B4A90420ED0DE
:103B7000B0F1804F0BD0A2F59432904207D002F5FD
:103B80009E32904203D002F58062904203D123F42A
:103B90004073CA68134323F080034A6913430360E8
:103BA0008B68C3620B6883620B4B984207D003F5A6
:103BB000A053984203D003F58063984201D10B696A
:103BC000036301234361036913F0010F03D0036909
:103BD00023F0010303617047002C014060B310B56E
:103BE000044690F83D3013B3022384F83D3021465B
:103BF00051F8040BFFF7AAFF012384F8483084F83A
:103C00003E3084F83F3084F8403084F8413084F806
:103C1000423084F8433084F8443084F8453084F8E6
:103C2000463084F8473084F83D30002010BD80F8DD
:103C30003C30FFF785FBD7E70120704710B484685C
:103C400024F47F4C42EA03220A4342EA0C028260D7
:103C50005DF8044B7047000090F83C30012B76D0A3
:103C600010B50446012380F83C30022380F83D3033
:103C700002689068374B034093600B68602B4CD010
:103C800023D8402B54D011D8202B03D00AD80BB105
:103C9000102B05D119462068FFF71FFE002028E0F1
:103CA000012026E0302BF5D0012022E0502B0AD154
:103CB000CA6849682068FFF7E9FD50212068FFF7CE
:103CC0000CFE002015E0012013E0B3F5805F3AD030
:103CD000B3F5005F14D0702B37D1CB684A68896880
:103CE0002068FFF7ABFF2268936843F07703936087
:103CF0000020012384F83D30002384F83C3010BDBF
:103D0000CB684A6889682068FFF798FF2268936843
:103D100043F4804393600020EBE7CA684968206859
:103D2000FFF7C7FD60212068FFF7D7FD0020E0E71F
:103D3000CA6849682068FFF7A9FD40212068FFF79D
:103D4000CCFD0020D5E70020D3E70120D1E70220F9
:103D5000704700BF8800FEFF90F83C20012A33D056
:103D600030B40346012280F83C20022280F83D2036
:103D7000006842688468154DA84220D022F0700285
:103D80000D682A4342601A68104882420AD0B2F194
:103D9000804F07D0A0F59430824203D000F59E30CA
:103DA000824204D124F08004896821439160012279
:103DB00083F83D20002083F83C0030BC704722F49B
:103DC00070024D682A43D9E702207047002C014059
:103DD00070477047704710B4846891FAA1F3A3B19B
:103DE000B3FA83F35B004FF0030C0CFA03F324EAFD
:103DF000030391FAA1F151B1B1FA81F149008A406E
:103E0000134383605DF8044B70472023EAE72021C9
:103E1000F4E710B4C46891FAA1F3A3B1B3FA83F341
:103E20005B004FF0030C0CFA03F324EA030391FA4E
:103E3000A1F151B1B1FA81F149008A401343C36045
:103E40005DF8044B70472023EAE72021F4E710B423
:103E5000046A91FAA1F3A3B1B3FA83F39B004FF084
:103E60000F0C0CFA03F324EA030391FAA1F151B108
:103E7000B1FA81F189008A40134303625DF8044B73
:103E800070472023EAE72021F4E710B4446A090AC6
:103E900091FAA1F3A3B1B3FA83F39B004FF00F0C97
:103EA0000CFA03F324EA030491FAA1F151B1B1FA37
:103EB00081F189008A40144344625DF8044B7047E5
:103EC0002023EAE72021F4E710B4046891FAA1F373
:103ED000A3B1B3FA83F35B004FF0030C0CFA03F3C6
:103EE00024EA030391FAA1F151B1B1FA81F1490039
:103EF0008A40134303605DF8044B70472023EAE7D0
:103F00002021F4E7F8B507460E460D6895FAA5F5A9
:103F100015B1B5FA85F51BE0202519E0B2682146F8
:103F20003846FFF758FF3268F1687B6823EA0203DE
:103F300001FB02F213437B6016E0726921463846AA
:103F4000FFF7A3FF726821463846FFF7BDFF013532
:103F5000346834FA05F217D00122AA401440F6D092
:103F60007368013B012BD9D9326921463846FFF7E6
:103F700050FF7368022BE5D1FF2CDED87269214611
:103F80003846FFF764FFDDE70020F8BD10B430309D
:103F90000B0A9B0003F00C03C45801F01F014FF003
:103FA0001F0C0CFA01FC24EA0C0CC2F384628A4058
:103FB0004CEA0202C2505DF8044B704710B4143052
:103FC0004B0E9B0003F00403C458C1F304514FF09F
:103FD000070C0CFA01FC24EA0C0C8A404CEA0202A1
:103FE000C2505DF8044B704730B583B00023019395
:103FF000002800F0D3800446836D13B323689A68C9
:1040000012F0005F05D09A6822F0204222F03F02B1
:104010009A602268936813F0805F1FD1936823F041
:10402000104323F03F0343F0805393605C4B1B68C5
:104030009B095C4AA2FB03239B0901335B000193AC
:1040400009E0FFF791F80023E36584F85430D5E7E1
:10405000019B013B0193019B002BF9D122689368DE
:1040600013F0805F73D1A36D43F01003A365E36D7C
:1040700043F00103E3650120936813F0040300D0CB
:104080000123A16D11F0100F40F08180002B7ED133
:10409000A36D23F4817343F00203A365936813F0C7
:1040A000010F0BD1404B9B6813F0010F06D16368E1
:1040B0003E498A6822F47C1213438B60627E636BF4
:1040C00043EA4233E2681343A268134394F8202082
:1040D00043EA0243012A3CD0A26A22B102F4707280
:1040E000E16A0A4313432168CD68314A2A401A43E2
:1040F000CA602268936813F0080300D00123BBB99B
:10410000E36C217E43EA813394F8301043EA4101A5
:10411000D36823F4804323F006030B43D36094F861
:104120003830012B1AD02268136923F00103136180
:104130002369012B22D02268136B23F00F03136332
:10414000A36D23F0030343F00103A36524E00020E3
:1041500092E7626A013A43EA4243BDE721680B698C
:104160006FF38A03E26B256C2A43656C2A43A56CC6
:104170002A43134343F001030B61D9E721680B6B1A
:1041800023F00F03E269013A13430B63D8E7A36DF1
:1041900043F01003A365012003B030BD0120FBE70D
:1041A00008000020632D3E05000004500003045069
:1041B00007C0F0FF704708B5806AFFF7FBFF08BD36
:1041C0007047704770B5044603681E685D6816F056
:1041D000020F10D015F0020F0DD0836D13F0100FE9
:1041E00003D1836D43F400638365204600F046FCF1
:1041F000236802221A6016F0040F02D015F0040F93
:1042000005D116F0080F3AD015F0080F37D0A36D7E
:1042100013F0100F03D1A36D43F40073A36523685B
:10422000DA6812F4406F24D1DA6812F4005F20D10A
:104230001A6812F0080F1CD09A6812F0040F10D1FF
:104240005A6822F00C025A60A36D23F48073A365B0
:10425000A36D13F4805F0CD1A36D43F00103A3653C
:1042600007E0A36D43F01003A365E36D43F0010382
:10427000E365204608F058FD23680C221A6016F00A
:10428000200F02D015F0200F05D116F0400F4CD0B2
:1042900015F0400F49D0A36D13F0100F03D1A36D9B
:1042A00043F40053A3652368DA6C12F0C00F2AD1DF
:1042B0000121DA6812F4406F27D10120DA6871B366
:1042C00012F0007F03D050B312F4005F27D11968B9
:1042D00011F0400F23D012F4001F20D19A6812F081
:1042E000080F14D15A6822F060025A60A36D23F4BB
:1042F0008053A365A36D13F4807F10D1A36D43F0A9
:104300000103A3650BE00021D3E70020D6E7A36DEE
:1043100043F01003A365E36D43F00103E36520461A
:1043200000F0A8FB236860221A6016F0800F02D00C
:1043300015F0800F2DD116F4807F02D015F4807F08
:1043400032D116F4007F02D015F4007F38D116F078
:10435000100F17D015F0100F14D0636B23B1236822
:10436000DB6813F0010F0AD0A36D43F48063A365EB
:10437000E36D43F00203E3652046FFF722FF236865
:1043800010221A6016F4806F02D015F4806F23D1CA
:1043900070BDA36D43F48033A3652046FFF710FF83
:1043A000236880221A60C6E7A36D43F40033A36537
:1043B000204600F061FB23684FF480721A60C0E76A
:1043C000A36D43F48023A365204600F056FB2368C9
:1043D0004FF400721A60BAE7A36D43F48043A365FB
:1043E000E36D43F00803E36523684FF480621A60CD
:1043F000204600F040FBCBE708B50346806A826D9B
:1044000012F0500F30D1836D43F40073836503685D
:104410001A6812F0080F14D0DA6812F4406F20D135
:10442000DB6813F4005F1CD1836D23F48073836514
:10443000836D13F4805F14D1836D43F001038365B2
:104440000FE0DB6813F0020F0BD1836D23F4807350
:104450008365836D13F4805F03D1836D43F00103A3
:10446000836508F061FC08BD826D12F0100F04D165
:10447000026D526B18469047F5E7FFF7A2FEF2E790
:1044800008B5806A836D43F040038365C36D43F0D4
:104490000403C365FFF795FE08BD0000F0B583B0C7
:1044A0000023019390F85430012B00F00B82044656
:1044B0000D46012380F854300068836813F0040F20
:1044C00009D0A36D43F02003A3650120002384F8E5
:1044D000543003B0F0BD4968052907D802390329D3
:1044E00071D8DFE801F002726B6D0C212A68FFF7CA
:1044F0004DFD2068836813F0040300D00123826817
:1045000012F0080200D0012223BB1ABBAA68B2F144
:10451000004F5CD02968FFF751FD2268536923F0F2
:104520000043536169692268D368C3F3C1035B0028
:1045300099402869042854D02E68603252F82070BF
:10454000A74B3B4006F0F84631430B4343F0004392
:1045500042F820302268936813F0010F17D12B68BE
:10456000E868D2F8B010C3F3120621EA060100F0A1
:10457000180C9C4820FA0CF00340C3F312030B43C1
:10458000C2F8B030EA68984B9A4200F091802B68EC
:10459000964A134200F09281954A926802F0E070C8
:1045A00094498B4200F03D8193498B4200F05F813A
:1045B00092498B4200F06F81002087E7182195E730
:1045C0004FF4807192E7062190E712218EE70022D6
:1045D0002968FFF7F3FC2268536943F000435361F5
:1045E000A0E7136E116EC1F384612B68C3F3120050
:1045F00078BBC3F38463994233D021684B6E4A6E13
:10460000C2F384622B68C3F3120078BBC3F38463E4
:104610009A4233D021688B6E8A6EC2F384622B6813
:10462000C3F3120078BBC3F384639A4233D021688A
:10463000CB6ECA6EC2F384622B68C3F3120078BBE0
:10464000C3F384639A4285D1CB6E23F00043CB66DB
:1046500080E793FAA3F313B1B3FA83F3CBE72023F4
:10466000C9E7136E23F000431366C6E793FAA3F37A
:1046700013B1B3FA83F3CBE72023C9E74B6E23F0E2
:1046800000434B66C6E793FAA3F313B1B3FA83F37F
:10469000CBE72023C9E78B6E23F000438B66C6E788
:1046A00093FAA3F313B1B3FA83F3CBE72023C9E75B
:1046B00020682B68C3F3120626BB9A0E013202F063
:1046C0001F02092A8CBF00220122002A52D046BBB9
:1046D000990E0131890601F0F84176BB9F0E013732
:1046E00007F01F070122BA401143AEBB9B0E0133F6
:1046F00003F01F0303EB43031B051943AA68FFF7ED
:104700005DFC44E793FAA3F24AB1B2FA82F20132B5
:1047100002F01F02092A8CBF00220122D5E72022C5
:10472000F5E793FAA3F131B1B1FA81F101318906CC
:1047300001F0F841D1E72021F8E793FAA3F24AB15A
:10474000B2FA82F2013202F01F024FF0010C0CFAB1
:1047500002F2C9E72022F5E793FAA3F343B1B3FAD3
:1047600083F3013303F01F0303EB43031B05C4E78B
:104770002023F6E7CEB9990E0131890601F0F84100
:10478000FEB99F0E013707F01F070122BA401143FF
:10479000B6BB9B0E013303F01F0303EB43031E3B29
:1047A0001B0543F000731943A8E793FAA3F131B155
:1047B000B1FA81F10131890601F0F841E0E72021E9
:1047C000F8E793FAA3F24AB1B2FA82F2013202F0A8
:1047D0001F024FF0010C0CFA02F2D8E72022F5E795
:1047E00000F0FF03FFFF070000007F40000008808B
:1047F00000030450000052C7000084CB0100008079
:1048000093FAA3F35BB1B3FA83F3013303F01F030D
:1048100003EB43031E3B1B0543F00073C3E7202358
:10482000F3E712F4000F7FF4BFAE2268264B9A42E2
:1048300001D000204AE640F4000324498A6822F0AF
:10484000E07213438B60224B1B689B09214AA2FB39
:1048500003239B09013303EB43039B000193019B5B
:104860001BB1019B013B0193F9E700202EE612F0FA
:10487000807F7FF49DAE2268134B9A4201D00020C6
:1048800024E640F0807311498A6822F0E0721343F5
:104890008B6000201AE612F4800F11D122680A4BB7
:1048A0009A4201D0002011E640F4800307498A684B
:1048B00022F0E07213438B60002007E6002005E63B
:1048C000002003E6022004E6000004500003045028
:1048D00008000020632D3E0530B583B0002301930E
:1048E00003689A6812F0010F58D1044699682D4A5E
:1048F000114219D19A6822F0004222F03F0242F0A0
:1049000001029A60284B9B6813F4000F1CD0274BC0
:104910001B689B09264AA2FB03239B09013303EB77
:1049200043039B0001930CE0836D43F01003836508
:10493000C36D43F00103C365012030E0019B013BDF
:104940000193019B002BF9D100F0BCF805462368C8
:104950001A6812F0010F1FD19A6812F0010F07D1E7
:104960009A6822F0004222F03F0242F001029A606F
:1049700000F0A8F8431B022BE9D923681B6813F049
:10498000010FE4D1A36D43F01003A365E36D43F081
:104990000103E365012002E0002000E0002003B0F5
:1049A00030BD00BF3F00008000030450080000201D
:1049B000632D3E0570B504460068806810F0040F52
:1049C0004ED10E46154694F85430012B4AD001239F
:1049D00084F854302046FFF77FFF00283CD1A36DB8
:1049E00023F4706323F0010343F48073A365A36D84
:1049F00013F4805F2DD0E36D23F00603E365236D90
:104A0000194ADA62236D194A1A63236D184A5A63E8
:104A100023681C221A60002384F8543022685368EB
:104A200043F0100353602268D36843F00103D3605E
:104A300021682B4632464031206D01F051F9226841
:104A4000936823F0004323F03F0343F00403936093
:104A500007E00023E365D2E7002384F8543000E048
:104A6000022070BD0220FCE7F9430008B7410008AE
:104A700081440008704770477047704770470000D6
:104A800010B5094A136843F480731360032001F0E2
:104A9000A1FA0020FEF7DCFD10B10124204610BD74
:104AA0000446FEF741FBF9E700200240034B1B7868
:104AB000034A11680B441360704700BF00000020D8
:104AC000BC0B0020014B1868704700BFBC0B0020D6
:104AD00030B583B00446204B9B6D13F0805F0BD044
:104AE00001F0E6F9B0F5007F17D0802C1FD82DD04B
:104AF000702C2DD000211BE0174DAB6D43F080537F
:104B0000AB65AB6D03F080530193019B01F0D0F9CD
:104B1000AB6D23F08053AB65E4E7802C03D9A02C68
:104B200003D9022104E0002102E0012100E0032179
:104B30000A4A136823F007030B431360136803F05A
:104B400007038B4206D1002003B030BD0221EFE7FE
:104B50000121EDE70120F7E70010024000200240AC
:104B600070B586B00D4616460F4CE36C43F001035A
:104B7000E364E36C03F001030093009B4FF4807344
:104B8000019302230293049300230393059301A945
:104B90004FF0904000F024FFA36823F0FE4335431C
:104BA0002B43A36006B070BD00100240254A9368F5
:104BB000D26802F0030213F00C0309D00C2B05D0CD
:104BC000042B3BD0082B3BD000200FE0012AF7D16B
:104BD0001C4A126812F0080F0CD11A4AD2F894201D
:104BE000C2F30322184951F8220013B10C2B06D04E
:104BF00000207047134A1268C2F30312F2E7114B08
:104C0000DB6803F00303022B16D0032B00D10F48FF
:104C10000C49CA68C2F302120132CB68C3F30623FF
:104C200000FB03F3B3FBF2F3C868C0F3416001304B
:104C30004000B3FBF0F070470548E9E704487047CF
:104C40000248704700100240F8E8000800127A009D
:104C50000024F400002800F01C83F0B583B0044663
:104C6000964B9D6805F00C05DE6806F003060368A8
:104C700013F0100F5AD0E5B10C2D18D0A369002BFA
:104C800000F0BB808D4A136843F001031360FFF707
:104C900019FF0746894B1B6813F0020F40F09A80FA
:104CA000FFF710FFC01B0228F4D90320FCE2012EFD
:104CB000E4D1824B1B6813F0020F03D0A369002BD1
:104CC00000F0E982206A7D4B1B6813F0080F5BD06F
:104CD0007A4B1B6803F0F00398425CD8774B1A6854
:104CE00042F008021A601A6822F0F002216A0A43B0
:104CF0001A605A6822F47F42E16942EA01225A604E
:104D0000002D60D0FFF752FF6C4B9B68C3F3031379
:104D10006B4AD35C03F01F03D8406A4B18606A4BA0
:104D20001868FEF795FC002840F0BE82236813F057
:104D3000010F00F08180082D75D00C2D71D06368B3
:104D4000B3F5803F00F09780B3F5A02F00F0998075
:104D50005A4B1A6822F480321A601A6822F48022B0
:104D60001A606368002B00F09980FFF7ABFE0746DE
:104D7000524B1B6813F4003F5ED1FFF7A3FEC01B2C
:104D80006428F5D903208FE24C4BD3F894301B09EB
:104D900003F0F003A0E7FFF79BFE002840F07D82C0
:104DA000464B1A6842F008021A601A6822F0F002B4
:104DB000216A0A431A605A6822F47F42E16942EA92
:104DC00001225A609EE7206AFFF782FE002899D0F0
:104DD000012069E2394B1A6842F008021A601A6829
:104DE00022F0F002216A0A431A605A6822F47F42D4
:104DF000E16942EA01225A6098E7304A136823F0D9
:104E000001031360FFF75EFE07462C4B1B6813F08F
:104E1000020F8BD0FFF756FEC01B0228F5D90320E6
:104E200042E2032E8BD1254B1B6813F4003F03D0C5
:104E30006368002B00F03382236813F0020F58D010
:104E4000042D45D00C2D41D0E368002B77D01B4AB0
:104E5000136843F480731360FFF734FE0646174B64
:104E60001B6813F4806F61D1FFF72CFE801B0228B2
:104E7000F5D9032018E2114A136843F48033136014
:104E80006FE703F18043A3F53C331A6842F48022B4
:104E90001A601A6842F480321A6062E7FFF712FE65
:104EA0000746064B1B6813F4003FC5D0FFF70AFE08
:104EB000C01B6428F5D90320F6E100BF00100240B2
:104EC00030E900080800002004000020022EBBD1B9
:104ED000A44B1B6813F4806F03D0E368002B00F031
:104EE000E081A04A536823F0FE43216943EA01634D
:104EF0005360236813F0080F4CD063699BB3994A41
:104F0000D2F8943043F00103C2F89430FFF7DAFD91
:104F10000646944BD3F8943013F0020F3AD1FFF7C2
:104F2000D1FD801B0228F4D90320BDE18D4A5368CE
:104F300023F0FE43216943EA01635360D9E7894ABC
:104F4000136823F480731360FFF7BCFD0646854B9E
:104F50001B6813F4806FCCD0FFF7B4FD801B0228D0
:104F6000F5D90320A0E17F4AD2F8943023F0010361
:104F7000C2F89430FFF7A6FD06467A4BD3F894307A
:104F800013F0020F06D0FFF79DFD801B0228F4D915
:104F9000032089E1236813F0040F7AD0714B9B6DD5
:104FA00013F0805F36D16F4B9A6D42F080529A6554
:104FB0009B6D03F080530193019B01266A4B1B6894
:104FC00013F4807F28D0A368012B39D0052B3FD064
:104FD000644BD3F8902022F00102C3F89020D3F85C
:104FE000902022F00402C3F89020A368002B3DD04B
:104FF000FFF768FD07465B4BD3F8903013F0020FC4
:1050000046D1FFF75FFDC01B41F288339842F2D9C9
:10501000032049E10026D1E7534A136843F4807323
:105020001360FFF74FFD07464F4B1B6813F4807F5B
:10503000C9D1FFF747FDC01B0228F5D9032033E192
:10504000484AD2F8903043F00103C2F89030CCE7E0
:10505000444BD3F8902042F00402C3F89020D3F8D8
:10506000902042F00102C3F89020BEE7FFF72AFD2E
:1050700007463C4BD3F8903013F0020F08D0FFF7EF
:1050800021FDC01B41F288339842F2D903200BE185
:10509000E6B9236813F0200F35D0636AE3B1314AD3
:1050A000D2F8983043F00103C2F89830FFF70AFDB8
:1050B00006462C4BD3F8983013F0020F23D1FFF79C
:1050C00001FD801B0228F4D90320EDE0254A936DF1
:1050D00023F080539365DCE7224AD2F8983023F01E
:1050E0000103C2F89830FFF7EDFC06461D4BD3F8DC
:1050F000983013F0020F06D0FFF7E4FC801B022863
:10510000F4D90320D0E0A36A002B00F0CC80022B5E
:1051100017D00C2D00F0CC80124A136823F0807356
:105120001360FFF7CFFC04460E4B1B6813F0007FA3
:1051300000F0A880FFF7C6FC001B0228F4D903206A
:10514000B2E0084BDB6803F00301E26A91420DD044
:105150000C2D00F0AB80034B1B6813F0806F2FD039
:105160000120A1E0001002400070004003F0700236
:10517000216B0139B2EB011FEAD103F4FE42616BEE
:10518000B2EB012FE4D103F07842A16BB2EBC16F17
:10519000DED103F4C001E26B5208013AB1EB425F89
:1051A000D6D103F0C063226C5208013AB3EB426FD0
:1051B000CED1404B1B6813F0007F49D0002073E034
:1051C0003C4A136823F080731360FFF77BFC0546AD
:1051D000384B1B6813F0007F06D0FFF773FC401BB1
:1051E0000228F5D903205FE0324AD36832491940DA
:1051F000E36A206B013843EA0013606B43EA002343
:10520000E06B4008013843EA4053206C4008013805
:1052100043EA4063A06B43EAC0631943D16013685B
:1052200043F080731360D36843F08073D360FFF75B
:1052300049FC04461F4B1B6813F0007F06D1FFF7A3
:1052400041FC001B0228F5D903202DE000202BE0B3
:10525000184B1A6842F080721A60DA6842F0807265
:10526000DA60FFF72FFC0446124B1B6813F0007F37
:1052700006D1FFF727FC031B022BF5D9032013E00F
:10528000002011E00B4AD1680C4B0B40D36000208A
:105290000AE001207047012006E0012004E001201F
:1052A00002E0012000E0002003B0F0BD0120FBE798
:1052B0000120F9E7001002408C809D01FCFFEEFE0A
:1052C000002800F0AF8070B50D460446594B1B68AE
:1052D00003F007038B420BD2564A136823F00703EF
:1052E0000B431360136803F007038B4240F09C806C
:1052F000236813F0020F0CD0A2684F4B9B6803F099
:10530000F0039A4205D94C498B6823F0F0031A4305
:105310008A60236813F0010F39D06368032B09D02A
:10532000022B26D063BB444A126812F0020F06D14A
:10533000012076E0404A126812F0007F76D03E49A4
:105340008A6822F0030213438B60FFF7BBFB06461B
:10535000394B9B6803F00C036268B3EB820F16D0E5
:10536000FFF7B0FB801B41F288339842F0D903204D
:1053700057E0314A126812F4003FE0D1012050E0BA
:105380002D4A126812F4806FD9D1012049E02368B8
:1053900013F0020F0CD0A268274B9B6803F0F003B8
:1053A0009A4205D224498B6823F0F0031A438A609D
:1053B000204B1B6803F00703AB420AD91D4A136850
:1053C00023F007032B431360136803F00703AB427A
:1053D0002ED1236813F0040F06D0174A936823F4E4
:1053E000E063E1680B439360236813F0080F07D074
:1053F000114A936823F46053216943EAC10393601F
:10540000FFF7D4FB0C4B9B68C3F303130B4AD35C2D
:1054100003F01F03D8400A4B18600A4B1868FEF7C8
:1054200017F970BD012070470120FAE70120F8E765
:105430000120F6E7002002400010024030E9000899
:105440000800002004000020014B1868704700BFCE
:105450000800002008B5FFF7F7FF054B9B68C3F372
:105460000223044AD35C03F01F03D84008BD00BFE9
:105470000010024028E9000808B5FFF7E5FF054BDA
:105480009B68C3F3C223044AD35C03F01F03D840D4
:1054900008BD00BF0010024028E900080F23036088
:1054A0000B4B9A6802F0030242609A6802F0F00225
:1054B00082609A6802F4E062C2609B68DB0803F4D1
:1054C000E0630361034B1B6803F007030B60704745
:1054D0000010024000200240F8B504460D46594B2A
:1054E000DB6813F0030F18D0564BDB6803F003039F
:1054F0000268934202D001263046F8BD002A00F02F
:105500009C80504BDB68C3F3021301334268934223
:1055100001D00126F0E7002619E00368022B55D0E0
:10552000032B5AD0012B40F08A80464A126812F0B1
:10553000020F5ED04348C26822F0730261680139ED
:1055400043EA01131343C3600026002ED4D13D4A21
:10555000136823F080631360FFF7B4FA0746394BF2
:105560001B6813F0006F05D0FFF7ACFAC31B022BCA
:10557000F5D90326002EBFD1002D3CD131490B694E
:1055800023F0784323F4FE43A068E268D20642EA9F
:10559000002213430B612B4A136843F080631360AE
:1055A000FFF790FA0546274B1B6813F0006F05D1F3
:1055B000FFF788FA401B0228F5D90326002E9BD15D
:1055C000204A1369A1690B43136195E71D4A1268CC
:1055D00012F4806FAED101268EE71A4A126812F4D7
:1055E000003FA7D1174A126812F4802FA2D10126DA
:1055F00082E70126A9E7012D0FD01248026922F0A7
:10560000C06222F4FE42A16863695B08013B5B064D
:1056100043EA01231A430261BDE70A48026922F402
:10562000C00222F4FE42A16823695B08013B5B05CE
:1056300043EA01231A430261ADE701265CE7012634
:105640005AE700BF001002402DE9F04182B0044645
:10565000036813F4006F26D0C36CB3F5000F06D0B7
:10566000B3F5400F1DD09BB1012637461DE0444ADB
:10567000D36843F48033D3600027414AD2F888309E
:1056800023F44003E16C0B43C2F8883000260CE0A1
:1056900000210430FFF720FF07460028EDD0064622
:1056A00003E00027E9E700263746236813F4003FAC
:1056B0006FD0334B9B6D13F0805F4CD1304B9A6DA4
:1056C00042F080529A659B6D03F080530193019BD9
:1056D0004FF001082B4A136843F480731360FFF7FF
:1056E000F1F90546274B1B6813F4807F05D1FFF7BE
:1056F000E9F9401B0228F5D90327002F44D1204B9C
:10570000D3F8903013F4407318D0626E9A4212D0DE
:105710001B4AD2F8903023F44073D2F8901041F431
:105720008031C2F89010D2F8901021F48031C2F884
:105730009010C2F8903013F0010F0FD1002F40F0FD
:1057400015810F4AD2F8903023F44073616E0B43F9
:10575000C2F8903019E04FF00008BBE7FFF7B2F94C
:105760000546074BD3F8903013F0020FE6D1FFF750
:10577000A9F9401B41F288339842F2D90327DDE7AB
:1057800000100240007000403E46B8F1000F40F0AB
:10579000EF80236813F0010F08D0904AD2F88830C8
:1057A00023F00303216A0B43C2F88830236813F007
:1057B000020F08D0894AD2F8883023F00C03616ABE
:1057C0000B43C2F88830236813F0040F08D0834AD3
:1057D000D2F8883023F03003A16A0B43C2F8883036
:1057E000236813F0080F08D07C4AD2F8883023F0E1
:1057F000C003E16A0B43C2F88830236813F0200F1E
:1058000008D0764AD2F8883023F44063216B0B43EA
:10581000C2F88830236813F4007F08D06F4AD2F8AA
:10582000883023F44023616C0B43C2F8883023682E
:1058300013F4806F08D0694AD2F8883023F44013FB
:10584000A16C0B43C2F88830236813F0400F08D0D6
:10585000624AD2F8883023F44053616B0B43C2F89C
:105860008830236813F0800F08D05C4AD2F8883063
:1058700023F44043A16B0B43C2F88830236813F430
:10588000807F08D0554AD2F8883023F44033E16B4A
:105890000B43C2F88830236813F4801F08D04F4AA6
:1058A000D2F89C3023F00303216C0B43C2F89C30E8
:1058B000236813F4005F0FD0484AD2F8883023F0F1
:1058C0004063216D0B43C2F88830236DB3F1006F44
:1058D00054D0B3F1806F56D0236813F4002F0FD04B
:1058E0003E4AD2F8883023F04063616D0B43C2F822
:1058F0008830636DB3F1006F4DD0B3F1806F4FD03E
:10590000236813F4802F0FD0344AD2F8883023F064
:105910004063A16D0B43C2F88830A36DB3F1006FF3
:1059200046D0B3F1806F48D0236813F4804F0CD079
:105930002A4AD2F8883023F04053E16D0B43C2F875
:105940008830E36DB3F1805F3FD0236813F4803F6C
:1059500008D0224AD2F8883023F00043216E0B434E
:10596000C2F88830304602B0BDE8F0813E460CE710
:105970001A4A936D23F0805393650AE7D36843F482
:105980008013D360A8E70121201DFFF7A5FD0028A3
:10599000A2D00646A0E7D36843F48013D360AFE7F4
:1059A0000121201DFFF798FD0028A9D00646A7E792
:1059B000D36843F48013D360B6E70121201DFFF7BD
:1059C0008BFD0028B0D00646AEE70221201DFFF770
:1059D00083FD0028B9D00646B7E700BF001002409B
:1059E000F0B583B0002362E085685E000324B44014
:1059F00025EA0405CC68B4402C438460456825EA58
:105A00000C054C68C4F300149C402C4344605FE0D8
:105A1000DD08083550F8254003F0070C4FEA8C0CE0
:105A20004FF00F0E0EFA0CFE24EA0E0E0C6904FA6B
:105A30000CF444EA0E0440F8254060E0042400E041
:105A4000002404FA0EF42C430CF1020C524D45F8DC
:105A50002C40524CA568D44325EA02064F6817F43F
:105A6000801F01D042EA05064C4DAE60ED6804EAA5
:105A700005064F6817F4001F01D042EA0506474D9E
:105A8000EE606D6804EA05064F6817F4003F01D028
:105A900042EA0506414D6E602D682C404E6816F4B2
:105AA000803F01D042EA05043C4A146001330A6891
:105AB00032FA03F46ED04FF0010C0CFA03FC1CEA2E
:105AC0000202F3D04C6804F00304013C012C8BD992
:105AD0004C6804F00304032C0CD0C4685D004FF044
